xprv9utKjQELg86Yy7iVpNo5B1NGAMZN6Tn6prJeoYiZoQ1SaDD3WFTtJ5wLXpkAveSob1QNManFbY25NzUZR8ZsGYNpBx6Vc27ivNxoTaKYapD/0h/0h/0h

xpub68sg8umEWVerBbnxvQL5Y9JziPPrVvVxC5EFbw8BMjYRT1YC3nn8qtFpP6xi4T9GT7GZinqwWm6DnNi1b8AzMyNYGBQ5Gj6L2be6jJTnFno



xprv9uh8xzLrjNSgdhQjJs9z8Ki2S6XqEZYyFd9ghL5K4uJRZY7cd16txqh8sdUQxKxSi9rfz7yjbdzp6VUid1FnxBq2ja93evAqHNMd4fAftmv/0h/0h/0h

xpub68gVNVskZjzyrBVCQtgzVTekz8NKe2Gpcr5HViUvdEqQSLSmAYR9We1cisTaiHFTQmKc5QSmrV26HEPoLHMf6hZbVpMznNju2r9jA4QNV6w



xprv9vYuNPBGfch59jAJjSBoGr9AE3Yn3BUWrbwBrVUqx5GrjUnMrKXHy5xcbpmpHBD25EYH7kL6VsoW7XwSHL9uR2BK6dUzXd2BCwjEy9Rq373/0h/0h/0h

xpub69YFmtiAVzFNNDEmqTiodz5tn5PGSeCNDprnestTWQoqcH7WPrqYWtH6T5CGjdQFhpdMZy1MeSpsf2i1ypAtVTQs5jbepZHAseejXZBThm7



xprv9ujXfgzcPY2gW8rijnvxpNJbWcKTsxnicyN96xacSbPoasBKbL18Pt5Gr26CGwkQqdRTfsjSLrdGA3Lk45S4cib2wTF3x6pxcLqwBamTX4e/0h/0h/0h

xpub68it5CXWDuayicwBqpTyBWFL4e9xHRWZzCHjuLzDzvvnTfWU8sKNwgPkhLUpRe6vu9woh1HZUZNtfKMvEyM4akAAYMVEGmxd3JvxvA8JoPY



xprv9vCaBuPS2ysJVFfd3WzjZvuU6R2Sa8HPp67b12Fngk3xqKv6vsKqN4zpV27ux3gPBeKXAMemUVYsnku1DWcS9RBrQQhbZkpPgFJf3e8suwa/0h/0h/0h

xpub69BvbQvKsMRbhjk69YXjw4rCeSrvyb1FBK3BoQfQF5awi8FFUQe5usKJLK3R5AsGrfi8xB4WhjQkWadXibVWCWwpD1nYFueogrdzha3KTbn



xprv9u7YcwvvJu5MWBxP3PJNwTCeU4MZ3bizJjoz4KXpcvXHiDaQczHymYyFj1xnon4JTK1mm3gsTeneYAiY93NhQuSw67M8m7CD1hA5hih13hh/0h/0h/0h

xpub686u2TTp9Gdeig2r9QqPJb9P26C3T4SqfxjarhwSBG4Gb1uZAXcEKMHjaHpKJzoC8a1J5v1sCtcnyN8FtcVsYwQ1UUThCNzmbR9tPQcaZgf



xprv9uJr77SYGrVqQeGbntZnwPMcynL899d2MDcP5HZBSUikGZ4qGHHf9KEzNCyhwrkmwu6yEmsnwNNH4scL2jgFGufNUrqZTBgXY8RrGCx3Xed/0h/0h/0h

xpub68JCWcyS7E48d8M4tv6oJXJMXpAcYcLsiSXysfxnzpFj9MPyopbuh7ZUDUmNhEzVr31DrDTYMp9srH8ZgS9YRZTpguCjGyDZFeppeY6VLow




getdescriptorinfo "wsh(multi(3,xprv9utKjQELg86Yy7iVpNo5B1NGAMZN6Tn6prJeoYiZoQ1SaDD3WFTtJ5wLXpkAveSob1QNManFbY25NzUZR8ZsGYNpBx6Vc27ivNxoTaKYapD/*,xprv9uh8xzLrjNSgdhQjJs9z8Ki2S6XqEZYyFd9ghL5K4uJRZY7cd16txqh8sdUQxKxSi9rfz7yjbdzp6VUid1FnxBq2ja93evAqHNMd4fAftmv/*,xprv9vYuNPBGfch59jAJjSBoGr9AE3Yn3BUWrbwBrVUqx5GrjUnMrKXHy5xcbpmpHBD25EYH7kL6VsoW7XwSHL9uR2BK6dUzXd2BCwjEy9Rq373/*,xprv9ujXfgzcPY2gW8rijnvxpNJbWcKTsxnicyN96xacSbPoasBKbL18Pt5Gr26CGwkQqdRTfsjSLrdGA3Lk45S4cib2wTF3x6pxcLqwBamTX4e/*,xprv9vCaBuPS2ysJVFfd3WzjZvuU6R2Sa8HPp67b12Fngk3xqKv6vsKqN4zpV27ux3gPBeKXAMemUVYsnku1DWcS9RBrQQhbZkpPgFJf3e8suwa/*,xprv9u7YcwvvJu5MWBxP3PJNwTCeU4MZ3bizJjoz4KXpcvXHiDaQczHymYyFj1xnon4JTK1mm3gsTeneYAiY93NhQuSw67M8m7CD1hA5hih13hh/*,xprv9uJr77SYGrVqQeGbntZnwPMcynL899d2MDcP5HZBSUikGZ4qGHHf9KEzNCyhwrkmwu6yEmsnwNNH4scL2jgFGufNUrqZTBgXY8RrGCx3Xed/*))"

Returns the same disciptor with checksum:
9twdqve3
￼
{
  "descriptor": "wsh(multi(3,xpub68sg8umEWVerBbnxvQL5Y9JziPPrVvVxC5EFbw8BMjYRT1YC3nn8qtFpP6xi4T9GT7GZinqwWm6DnNi1b8AzMyNYGBQ5Gj6L2be6jJTnFno/*,xpub68gVNVskZjzyrBVCQtgzVTekz8NKe2Gpcr5HViUvdEqQSLSmAYR9We1cisTaiHFTQmKc5QSmrV26HEPoLHMf6hZbVpMznNju2r9jA4QNV6w/*,xpub69YFmtiAVzFNNDEmqTiodz5tn5PGSeCNDprnestTWQoqcH7WPrqYWtH6T5CGjdQFhpdMZy1MeSpsf2i1ypAtVTQs5jbepZHAseejXZBThm7/*,xpub68it5CXWDuayicwBqpTyBWFL4e9xHRWZzCHjuLzDzvvnTfWU8sKNwgPkhLUpRe6vu9woh1HZUZNtfKMvEyM4akAAYMVEGmxd3JvxvA8JoPY/*,xpub69BvbQvKsMRbhjk69YXjw4rCeSrvyb1FBK3BoQfQF5awi8FFUQe5usKJLK3R5AsGrfi8xB4WhjQkWadXibVWCWwpD1nYFueogrdzha3KTbn/*,xpub686u2TTp9Gdeig2r9QqPJb9P26C3T4SqfxjarhwSBG4Gb1uZAXcEKMHjaHpKJzoC8a1J5v1sCtcnyN8FtcVsYwQ1UUThCNzmbR9tPQcaZgf/*,xpub68JCWcyS7E48d8M4tv6oJXJMXpAcYcLsiSXysfxnzpFj9MPyopbuh7ZUDUmNhEzVr31DrDTYMp9srH8ZgS9YRZTpguCjGyDZFeppeY6VLow/*))#veumqwwd",
  "checksum": "y6wgv4mt",
  "isrange": true,
  "issolvable": true,
  "hasprivatekeys": true
}


Run same command with the result.dict["checksum"] of prev command
deriveaddresses "wsh(multi(3,xprv9utKjQELg86Yy7iVpNo5B1NGAMZN6Tn6prJeoYiZoQ1SaDD3WFTtJ5wLXpkAveSob1QNManFbY25NzUZR8ZsGYNpBx6Vc27ivNxoTaKYapD/*,xprv9uh8xzLrjNSgdhQjJs9z8Ki2S6XqEZYyFd9ghL5K4uJRZY7cd16txqh8sdUQxKxSi9rfz7yjbdzp6VUid1FnxBq2ja93evAqHNMd4fAftmv/*,xprv9vYuNPBGfch59jAJjSBoGr9AE3Yn3BUWrbwBrVUqx5GrjUnMrKXHy5xcbpmpHBD25EYH7kL6VsoW7XwSHL9uR2BK6dUzXd2BCwjEy9Rq373/*,xprv9ujXfgzcPY2gW8rijnvxpNJbWcKTsxnicyN96xacSbPoasBKbL18Pt5Gr26CGwkQqdRTfsjSLrdGA3Lk45S4cib2wTF3x6pxcLqwBamTX4e/*,xprv9vCaBuPS2ysJVFfd3WzjZvuU6R2Sa8HPp67b12Fngk3xqKv6vsKqN4zpV27ux3gPBeKXAMemUVYsnku1DWcS9RBrQQhbZkpPgFJf3e8suwa/*,xprv9u7YcwvvJu5MWBxP3PJNwTCeU4MZ3bizJjoz4KXpcvXHiDaQczHymYyFj1xnon4JTK1mm3gsTeneYAiY93NhQuSw67M8m7CD1hA5hih13hh/*,xprv9uJr77SYGrVqQeGbntZnwPMcynL899d2MDcP5HZBSUikGZ4qGHHf9KEzNCyhwrkmwu6yEmsnwNNH4scL2jgFGufNUrqZTBgXY8RrGCx3Xed/*))#y6wgv4mt" "[0,5]"

Returns A list of address generated from pub keys:
[
  "bc1qfwch8t9sglgk8hncwkhv7hv45p0hgpa2mw0sxs27wncghjesf68qe96l5f",
  "bc1qa45r7c2rt4zgwjkme66nvdgl4wjdew84kmf5d26wjvpflut54reqa97fas",
  "bc1qjgtvj7kzekkdvs0gzrqte8k0q49x4x42klcu5sdj7xr7wj9eu49s5a8f0l",
  "bc1qtdpm92p0wrz7u7fmpl4rl68gjyatmsymhq5mze6hj6rwx058se7sc58tc9",
  "bc1qsmx5w7jh286tsk64j6faygfr5j34wcqnehsa6aq70jmtgdyek55sx5qdhj",
  "bc1qe5n9hjrvyhenshe09lx043mj9dpfcqvcrfzggs40k8ctuzvyxqeswxm5dq"
]

importmulti '[{ "desc": "wsh(multi(3,xprv9utKjQELg86Yy7iVpNo5B1NGAMZN6Tn6prJeoYiZoQ1SaDD3WFTtJ5wLXpkAveSob1QNManFbY25NzUZR8ZsGYNpBx6Vc27ivNxoTaKYapD/*,xprv9uh8xzLrjNSgdhQjJs9z8Ki2S6XqEZYyFd9ghL5K4uJRZY7cd16txqh8sdUQxKxSi9rfz7yjbdzp6VUid1FnxBq2ja93evAqHNMd4fAftmv/*,xprv9vYuNPBGfch59jAJjSBoGr9AE3Yn3BUWrbwBrVUqx5GrjUnMrKXHy5xcbpmpHBD25EYH7kL6VsoW7XwSHL9uR2BK6dUzXd2BCwjEy9Rq373/*,xprv9ujXfgzcPY2gW8rijnvxpNJbWcKTsxnicyN96xacSbPoasBKbL18Pt5Gr26CGwkQqdRTfsjSLrdGA3Lk45S4cib2wTF3x6pxcLqwBamTX4e/*,xprv9vCaBuPS2ysJVFfd3WzjZvuU6R2Sa8HPp67b12Fngk3xqKv6vsKqN4zpV27ux3gPBeKXAMemUVYsnku1DWcS9RBrQQhbZkpPgFJf3e8suwa/*,xprv9u7YcwvvJu5MWBxP3PJNwTCeU4MZ3bizJjoz4KXpcvXHiDaQczHymYyFj1xnon4JTK1mm3gsTeneYAiY93NhQuSw67M8m7CD1hA5hih13hh/*,xprv9uJr77SYGrVqQeGbntZnwPMcynL899d2MDcP5HZBSUikGZ4qGHHf9KEzNCyhwrkmwu6yEmsnwNNH4scL2jgFGufNUrqZTBgXY8RrGCx3Xed/*))#y6wgv4mt", "timestamp": "now", "range": [0,5], "watchonly": false, "label": "test" }]' '{"rescan": true}'


REPEAT 7 times with diffrent keys each time:

	getdescriptorinfo "pk(xprv9utKjQELg86Yy7iVpNo5B1NGAMZN6Tn6prJeoYiZoQ1SaDD3WFTtJ5wLXpkAveSob1QNManFbY25NzUZR8ZsGYNpBx6Vc27ivNxoTaKYapD/*)"


	getdescriptorinfo "pk(xprv9utKjQELg86Yy7iVpNo5B1NGAMZN6Tn6prJeoYiZoQ1SaDD3WFTtJ5wLXpkAveSob1QNManFbY25NzUZR8ZsGYNpBx6Vc27ivNxoTaKYapD/*)#h37xzssz"


	deriveaddresses "pk(xprv9utKjQELg86Yy7iVpNo5B1NGAMZN6Tn6prJeoYiZoQ1SaDD3WFTtJ5wLXpkAveSob1QNManFbY25NzUZR8ZsGYNpBx6Vc27ivNxoTaKYapD/*)#h37xzssz" "[0,5]"

[
  "18NHDAjnJZjFBUAF6YcJrPepYRQnTTqV9S",
  "1BTBDfZGzpGt2wDWgdjHc2yZzNMTJYxbyN",
  "1PiHLGaRBExPsBfsiRtBTpDesuuBGCgKzW",
  "1QGe31jZjizkpypnTQ28ce1qevcprL1tpN",
  "158pdYZzZ8JaiJyLGJGRyaS1UddL8Vy8dp",
  "17ZpUGv8tn5ab5tiNb2L3zfm3h4ER4wLCZ"
]

	dumpprivkey "WITH EACH 10 ADDRESSES"

	importprivkey "WITH EACH 10 PRIVKEYS DUMPED FROM THE ADDRESSES" "" false

22222

  getdescriptorinfo "pk(xprv9uh8xzLrjNSgdhQjJs9z8Ki2S6XqEZYyFd9ghL5K4uJRZY7cd16txqh8sdUQxKxSi9rfz7yjbdzp6VUid1FnxBq2ja93evAqHNMd4fAftmv/*)"


  getdescriptorinfo "pk(xprv9uh8xzLrjNSgdhQjJs9z8Ki2S6XqEZYyFd9ghL5K4uJRZY7cd16txqh8sdUQxKxSi9rfz7yjbdzp6VUid1FnxBq2ja93evAqHNMd4fAftmv/*)#vuhnu724"


  deriveaddresses "pk(xprv9uh8xzLrjNSgdhQjJs9z8Ki2S6XqEZYyFd9ghL5K4uJRZY7cd16txqh8sdUQxKxSi9rfz7yjbdzp6VUid1FnxBq2ja93evAqHNMd4fAftmv/*)#vuhnu724" "[0,5]"


[
  "18SMCxRZ1uk6XCqLoqVx92NsJgG47rrFyL",
  "13PAiFVrig3enZqhJbfoHxqnntt1BeXwnG",
  "1MjqU1PVibCEWrAFyXsG1BNXcSMP5taUDL",
  "19VY8pffvnPJYttXvvxcoDt88uyW3ZSVGP",
  "1H5pDy2x2gMqYbu7MfpskSqK3TGJAw5gEB",
  "15o3RT3TaEuSeaDpjocUSL8NaJuJi7tpty"
]

  dumpprivkey "WITH EACH 10 ADDRESSES"

  importprivkey "WITH EACH 10 PRIVKEYS DUMPED FROM THE ADDRESSES" "" false

 333333

  getdescriptorinfo "pk(xprv9vYuNPBGfch59jAJjSBoGr9AE3Yn3BUWrbwBrVUqx5GrjUnMrKXHy5xcbpmpHBD25EYH7kL6VsoW7XwSHL9uR2BK6dUzXd2BCwjEy9Rq373/*)"


  getdescriptorinfo "pk(xprv9vYuNPBGfch59jAJjSBoGr9AE3Yn3BUWrbwBrVUqx5GrjUnMrKXHy5xcbpmpHBD25EYH7kL6VsoW7XwSHL9uR2BK6dUzXd2BCwjEy9Rq373/*)#0nujnaqx"


  deriveaddresses "pk(xprv9vYuNPBGfch59jAJjSBoGr9AE3Yn3BUWrbwBrVUqx5GrjUnMrKXHy5xcbpmpHBD25EYH7kL6VsoW7XwSHL9uR2BK6dUzXd2BCwjEy9Rq373/*)#0nujnaqx" "[0,5]"

[
  "1FK3ajCFNMoYfFnV3AXeR9atqENYBgRSx7",
  "1G5oxrmr9hpyD2bABCQP6hHGvNXqYfa31W",
  "1K1nqL28VXmiXSuAvZibEwHszv7hJQv6QH",
  "14bXGj81WNHGHrtbckP8MGHd2HtDviU7Jo",
  "14YwyUmtE1rG7rZgeA9DkSsQVNZy3vAvyw",
  "1BraEX7b4bbK54ieie8pfP7kkViNkmy7po"
]

  dumpprivkey "WITH EACH 10 ADDRESSES"

  importprivkey "WITH EACH 10 PRIVKEYS DUMPED FROM THE ADDRESSES" "" false


4444444

  getdescriptorinfo "pk(xprv9vYuNPBGfch59jAJjSBoGr9AE3Yn3BUWrbwBrVUqx5GrjUnMrKXHy5xcbpmpHBD25EYH7kL6VsoW7XwSHL9uR2BK6dUzXd2BCwjEy9Rq373/*)"


  getdescriptorinfo "pk(xprv9vYuNPBGfch59jAJjSBoGr9AE3Yn3BUWrbwBrVUqx5GrjUnMrKXHy5xcbpmpHBD25EYH7kL6VsoW7XwSHL9uR2BK6dUzXd2BCwjEy9Rq373/*)#0nujnaqx"


  deriveaddresses "pk(xprv9vYuNPBGfch59jAJjSBoGr9AE3Yn3BUWrbwBrVUqx5GrjUnMrKXHy5xcbpmpHBD25EYH7kL6VsoW7XwSHL9uR2BK6dUzXd2BCwjEy9Rq373/*)#0nujnaqx" "[0,5]"

[
  "1FK3ajCFNMoYfFnV3AXeR9atqENYBgRSx7",
  "1G5oxrmr9hpyD2bABCQP6hHGvNXqYfa31W",
  "1K1nqL28VXmiXSuAvZibEwHszv7hJQv6QH",
  "14bXGj81WNHGHrtbckP8MGHd2HtDviU7Jo",
  "14YwyUmtE1rG7rZgeA9DkSsQVNZy3vAvyw",
  "1BraEX7b4bbK54ieie8pfP7kkViNkmy7po"
]

  dumpprivkey "WITH EACH 10 ADDRESSES"

  importprivkey "WITH EACH 10 PRIVKEYS DUMPED FROM THE ADDRESSES" "" false


5555555

  getdescriptorinfo "pk(xprv9vYuNPBGfch59jAJjSBoGr9AE3Yn3BUWrbwBrVUqx5GrjUnMrKXHy5xcbpmpHBD25EYH7kL6VsoW7XwSHL9uR2BK6dUzXd2BCwjEy9Rq373/*)"


  getdescriptorinfo "pk(xprv9vYuNPBGfch59jAJjSBoGr9AE3Yn3BUWrbwBrVUqx5GrjUnMrKXHy5xcbpmpHBD25EYH7kL6VsoW7XwSHL9uR2BK6dUzXd2BCwjEy9Rq373/*)#0nujnaqx"


  deriveaddresses "pk(xprv9vYuNPBGfch59jAJjSBoGr9AE3Yn3BUWrbwBrVUqx5GrjUnMrKXHy5xcbpmpHBD25EYH7kL6VsoW7XwSHL9uR2BK6dUzXd2BCwjEy9Rq373/*)#0nujnaqx" "[0,5]"

[
  "1FK3ajCFNMoYfFnV3AXeR9atqENYBgRSx7",
  "1G5oxrmr9hpyD2bABCQP6hHGvNXqYfa31W",
  "1K1nqL28VXmiXSuAvZibEwHszv7hJQv6QH",
  "14bXGj81WNHGHrtbckP8MGHd2HtDviU7Jo",
  "14YwyUmtE1rG7rZgeA9DkSsQVNZy3vAvyw",
  "1BraEX7b4bbK54ieie8pfP7kkViNkmy7po"
]

  dumpprivkey "WITH EACH 10 ADDRESSES"

  importprivkey "WITH EACH 10 PRIVKEYS DUMPED FROM THE ADDRESSES" "" false


6666666

  getdescriptorinfo "pk(xprv9vYuNPBGfch59jAJjSBoGr9AE3Yn3BUWrbwBrVUqx5GrjUnMrKXHy5xcbpmpHBD25EYH7kL6VsoW7XwSHL9uR2BK6dUzXd2BCwjEy9Rq373/*)"


  getdescriptorinfo "pk(xprv9vYuNPBGfch59jAJjSBoGr9AE3Yn3BUWrbwBrVUqx5GrjUnMrKXHy5xcbpmpHBD25EYH7kL6VsoW7XwSHL9uR2BK6dUzXd2BCwjEy9Rq373/*)#0nujnaqx"


  deriveaddresses "pk(xprv9vYuNPBGfch59jAJjSBoGr9AE3Yn3BUWrbwBrVUqx5GrjUnMrKXHy5xcbpmpHBD25EYH7kL6VsoW7XwSHL9uR2BK6dUzXd2BCwjEy9Rq373/*)#0nujnaqx" "[0,5]"

[
  "1FK3ajCFNMoYfFnV3AXeR9atqENYBgRSx7",
  "1G5oxrmr9hpyD2bABCQP6hHGvNXqYfa31W",
  "1K1nqL28VXmiXSuAvZibEwHszv7hJQv6QH",
  "14bXGj81WNHGHrtbckP8MGHd2HtDviU7Jo",
  "14YwyUmtE1rG7rZgeA9DkSsQVNZy3vAvyw",
  "1BraEX7b4bbK54ieie8pfP7kkViNkmy7po"
]

  dumpprivkey "WITH EACH 10 ADDRESSES"

  importprivkey "WITH EACH 10 PRIVKEYS DUMPED FROM THE ADDRESSES" "" false

777777

  getdescriptorinfo "pk(xprv9vYuNPBGfch59jAJjSBoGr9AE3Yn3BUWrbwBrVUqx5GrjUnMrKXHy5xcbpmpHBD25EYH7kL6VsoW7XwSHL9uR2BK6dUzXd2BCwjEy9Rq373/*)"


  getdescriptorinfo "pk(xprv9vYuNPBGfch59jAJjSBoGr9AE3Yn3BUWrbwBrVUqx5GrjUnMrKXHy5xcbpmpHBD25EYH7kL6VsoW7XwSHL9uR2BK6dUzXd2BCwjEy9Rq373/*)#0nujnaqx"


  deriveaddresses "pk(xprv9vYuNPBGfch59jAJjSBoGr9AE3Yn3BUWrbwBrVUqx5GrjUnMrKXHy5xcbpmpHBD25EYH7kL6VsoW7XwSHL9uR2BK6dUzXd2BCwjEy9Rq373/*)#0nujnaqx" "[0,5]"

[
  "1FK3ajCFNMoYfFnV3AXeR9atqENYBgRSx7",
  "1G5oxrmr9hpyD2bABCQP6hHGvNXqYfa31W",
  "1K1nqL28VXmiXSuAvZibEwHszv7hJQv6QH",
  "14bXGj81WNHGHrtbckP8MGHd2HtDviU7Jo",
  "14YwyUmtE1rG7rZgeA9DkSsQVNZy3vAvyw",
  "1BraEX7b4bbK54ieie8pfP7kkViNkmy7po"
]

  dumpprivkey "WITH EACH 10 ADDRESSES"

  importprivkey "WITH EACH 10 PRIVKEYS DUMPED FROM THE ADDRESSES" "" false





bc1qs6vtad676zrtnzkffy39n0zrqskus9ygq5j8a8mfds6d4sl7t7tstrcva3
xprv9ujXfgzcPY2gW8rijnvxpNJbWcKTsxnicyN96xacSbPoasBKbL18Pt5Gr26CGwkQqdRTfsjSLrdGA3Lk45S4cib2wTF3x6pxcLqwBamTX4e

Returns a dict with a status:


[
  {
    "success": true
  }
]

createrawtransaction '[{"txid": "51d79e51723a4f7e67e575c1fc6665ea07732fb4d791f0f828e5b2b5ca455a28","vout": 0}]' '[{"31smwvXUg2nRBSms4CuTmwvo9Yzj8TZpBg": 0.0002},{"bc1qgww4rd4wg4c95ehp7zn8d2uupm8pmtvmpa0wztwd4u5lfwjsl4eqr0sn99": 0.0004}]'
Result:
0200000001285a45cab5b2e528f8f091d7b42f7307ea6566fcc175e5677e4f3a72519ed7510000000000ffffffff02204e00000000000017a9140208e8a8fbcf8b759c9318c9160da143abfc624c87409c000000000000220020439d51b6ae45705a66e1f0a676ab9c0ece1dad9b0f5ee12dcdaf29f4ba50fd7200000000

signrawtransactionwithwallet '0200000001285a45cab5b2e528f8f091d7b42f7307ea6566fcc175e5677e4f3a72519ed7510000000000ffffffff02204e00000000000017a9140208e8a8fbcf8b759c9318c9160da143abfc624c87409c000000000000220020439d51b6ae45705a66e1f0a676ab9c0ece1dad9b0f5ee12dcdaf29f4ba50fd7200000000' '[{"txid": "51d79e51723a4f7e67e575c1fc6665ea07732fb4d791f0f828e5b2b5ca455a28","vout": 0,"scriptPubKey": "0020439d51b6ae45705a66e1f0a676ab9c0ece1dad9b0f5ee12dcdaf29f4ba50fd72","witnessScript": "522103d63317c3f087f580ddf253eff48e3b193986bf22801415a77b5500a5458ab3a321032e734bd768d6f2cd8a6b66054a7dcf2f0ff129c919b8f539419a48bdd4a9112752ae","amount": 0.00061758}]'

Result:



￼
sendrawtransaction '02000000000101c2d1a96876f636b8510ef1dd4538abfbb8de367d6e19007236342217be53e21200000000232200205104b174dfb709d198f702fe9b8c04699e151225493919ce14f4511cd0b1abccffffffff02204e00000000000017a914114f3d33cc0a3d0c54d3c219f7d263474f0f389987409c00000000000017a914080c842b8951fd0e5adb91138b0a4a3a6904ceb587040047304402205d9dbfc7e2f98473c21a1ef238bd0bb01295409ec215abf6f4610770e729bf3b02207a0cf403df1f2f056d8fe1b9aca56dd407209c788a13115324a6b4bade3813530147304402201b14854b2683f1e9c45c090cc49bac3df3a336f057955bd8c2d61e262f7fc7af02200f168c975e1b9852bfd4d550b0b304111bea14e7a6c88ed7b40649de79d826400169522102c927448a6a6d89b607307feef104188a448b606b2781e808ae2b7fda9e0e90352102ab2a9cdc3b9d656aafa7cf1f5047ac926b35f64808d8c75c7875455684dc4bde21032a614adf53eda10271d89d454d4a3bf7551f92c6c21b8714c9ec47e605c6df1453ae00000000'

Result:


