OFFLINE
TAKEN FROM A RANDOM GENERATOR UNSAFE KEYS
xprv9utKjQELg86Yy7iVpNo5B1NGAMZN6Tn6prJeoYiZoQ1SaDD3WFTtJ5wLXpkAveSob1QNManFbY25NzUZR8ZsGYNpBx6Vc27ivNxoTaKYapD

xpub68sg8umEWVerBbnxvQL5Y9JziPPrVvVxC5EFbw8BMjYRT1YC3nn8qtFpP6xi4T9GT7GZinqwWm6DnNi1b8AzMyNYGBQ5Gj6L2be6jJTnFno



xprv9uh8xzLrjNSgdhQjJs9z8Ki2S6XqEZYyFd9ghL5K4uJRZY7cd16txqh8sdUQxKxSi9rfz7yjbdzp6VUid1FnxBq2ja93evAqHNMd4fAftmv

xpub68gVNVskZjzyrBVCQtgzVTekz8NKe2Gpcr5HViUvdEqQSLSmAYR9We1cisTaiHFTQmKc5QSmrV26HEPoLHMf6hZbVpMznNju2r9jA4QNV6w



xprv9vYuNPBGfch59jAJjSBoGr9AE3Yn3BUWrbwBrVUqx5GrjUnMrKXHy5xcbpmpHBD25EYH7kL6VsoW7XwSHL9uR2BK6dUzXd2BCwjEy9Rq373

xpub69YFmtiAVzFNNDEmqTiodz5tn5PGSeCNDprnestTWQoqcH7WPrqYWtH6T5CGjdQFhpdMZy1MeSpsf2i1ypAtVTQs5jbepZHAseejXZBThm7



xprv9ujXfgzcPY2gW8rijnvxpNJbWcKTsxnicyN96xacSbPoasBKbL18Pt5Gr26CGwkQqdRTfsjSLrdGA3Lk45S4cib2wTF3x6pxcLqwBamTX4e

xpub68it5CXWDuayicwBqpTyBWFL4e9xHRWZzCHjuLzDzvvnTfWU8sKNwgPkhLUpRe6vu9woh1HZUZNtfKMvEyM4akAAYMVEGmxd3JvxvA8JoPY



xprv9vCaBuPS2ysJVFfd3WzjZvuU6R2Sa8HPp67b12Fngk3xqKv6vsKqN4zpV27ux3gPBeKXAMemUVYsnku1DWcS9RBrQQhbZkpPgFJf3e8suwa

xpub69BvbQvKsMRbhjk69YXjw4rCeSrvyb1FBK3BoQfQF5awi8FFUQe5usKJLK3R5AsGrfi8xB4WhjQkWadXibVWCWwpD1nYFueogrdzha3KTbn



xprv9u7YcwvvJu5MWBxP3PJNwTCeU4MZ3bizJjoz4KXpcvXHiDaQczHymYyFj1xnon4JTK1mm3gsTeneYAiY93NhQuSw67M8m7CD1hA5hih13hh

xpub686u2TTp9Gdeig2r9QqPJb9P26C3T4SqfxjarhwSBG4Gb1uZAXcEKMHjaHpKJzoC8a1J5v1sCtcnyN8FtcVsYwQ1UUThCNzmbR9tPQcaZgf



xprv9uJr77SYGrVqQeGbntZnwPMcynL899d2MDcP5HZBSUikGZ4qGHHf9KEzNCyhwrkmwu6yEmsnwNNH4scL2jgFGufNUrqZTBgXY8RrGCx3Xed

xpub68JCWcyS7E48d8M4tv6oJXJMXpAcYcLsiSXysfxnzpFj9MPyopbuh7ZUDUmNhEzVr31DrDTYMp9srH8ZgS9YRZTpguCjGyDZFeppeY6VLow




getdescriptorinfo "wsh(multi(3,xprv9utKjQELg86Yy7iVpNo5B1NGAMZN6Tn6prJeoYiZoQ1SaDD3WFTtJ5wLXpkAveSob1QNManFbY25NzUZR8ZsGYNpBx6Vc27ivNxoTaKYapD/*,xprv9uh8xzLrjNSgdhQjJs9z8Ki2S6XqEZYyFd9ghL5K4uJRZY7cd16txqh8sdUQxKxSi9rfz7yjbdzp6VUid1FnxBq2ja93evAqHNMd4fAftmv/*,xprv9vYuNPBGfch59jAJjSBoGr9AE3Yn3BUWrbwBrVUqx5GrjUnMrKXHy5xcbpmpHBD25EYH7kL6VsoW7XwSHL9uR2BK6dUzXd2BCwjEy9Rq373/*,xprv9ujXfgzcPY2gW8rijnvxpNJbWcKTsxnicyN96xacSbPoasBKbL18Pt5Gr26CGwkQqdRTfsjSLrdGA3Lk45S4cib2wTF3x6pxcLqwBamTX4e/*,xprv9vCaBuPS2ysJVFfd3WzjZvuU6R2Sa8HPp67b12Fngk3xqKv6vsKqN4zpV27ux3gPBeKXAMemUVYsnku1DWcS9RBrQQhbZkpPgFJf3e8suwa/*,xprv9u7YcwvvJu5MWBxP3PJNwTCeU4MZ3bizJjoz4KXpcvXHiDaQczHymYyFj1xnon4JTK1mm3gsTeneYAiY93NhQuSw67M8m7CD1hA5hih13hh/*,xprv9uJr77SYGrVqQeGbntZnwPMcynL899d2MDcP5HZBSUikGZ4qGHHf9KEzNCyhwrkmwu6yEmsnwNNH4scL2jgFGufNUrqZTBgXY8RrGCx3Xed/*))"

Returns the same disciptor with checksum:

{
  "descriptor": "wsh(multi(3,xpub68sg8umEWVerBbnxvQL5Y9JziPPrVvVxC5EFbw8BMjYRT1YC3nn8qtFpP6xi4T9GT7GZinqwWm6DnNi1b8AzMyNYGBQ5Gj6L2be6jJTnFno/*,xpub68gVNVskZjzyrBVCQtgzVTekz8NKe2Gpcr5HViUvdEqQSLSmAYR9We1cisTaiHFTQmKc5QSmrV26HEPoLHMf6hZbVpMznNju2r9jA4QNV6w/*,xpub69YFmtiAVzFNNDEmqTiodz5tn5PGSeCNDprnestTWQoqcH7WPrqYWtH6T5CGjdQFhpdMZy1MeSpsf2i1ypAtVTQs5jbepZHAseejXZBThm7/*,xpub68it5CXWDuayicwBqpTyBWFL4e9xHRWZzCHjuLzDzvvnTfWU8sKNwgPkhLUpRe6vu9woh1HZUZNtfKMvEyM4akAAYMVEGmxd3JvxvA8JoPY/*,xpub69BvbQvKsMRbhjk69YXjw4rCeSrvyb1FBK3BoQfQF5awi8FFUQe5usKJLK3R5AsGrfi8xB4WhjQkWadXibVWCWwpD1nYFueogrdzha3KTbn/*,xpub686u2TTp9Gdeig2r9QqPJb9P26C3T4SqfxjarhwSBG4Gb1uZAXcEKMHjaHpKJzoC8a1J5v1sCtcnyN8FtcVsYwQ1UUThCNzmbR9tPQcaZgf/*,xpub68JCWcyS7E48d8M4tv6oJXJMXpAcYcLsiSXysfxnzpFj9MPyopbuh7ZUDUmNhEzVr31DrDTYMp9srH8ZgS9YRZTpguCjGyDZFeppeY6VLow/*))#veumqwwd",
  "checksum": "y6wgv4mt",
  "isrange": true,
  "issolvable": true,
  "hasprivatekeys": true
}


Run same command with the result.dict["checksum"] of prev command
deriveaddresses "wsh(multi(3,xprv9utKjQELg86Yy7iVpNo5B1NGAMZN6Tn6prJeoYiZoQ1SaDD3WFTtJ5wLXpkAveSob1QNManFbY25NzUZR8ZsGYNpBx6Vc27ivNxoTaKYapD/*,xprv9uh8xzLrjNSgdhQjJs9z8Ki2S6XqEZYyFd9ghL5K4uJRZY7cd16txqh8sdUQxKxSi9rfz7yjbdzp6VUid1FnxBq2ja93evAqHNMd4fAftmv/*,xprv9vYuNPBGfch59jAJjSBoGr9AE3Yn3BUWrbwBrVUqx5GrjUnMrKXHy5xcbpmpHBD25EYH7kL6VsoW7XwSHL9uR2BK6dUzXd2BCwjEy9Rq373/*,xprv9ujXfgzcPY2gW8rijnvxpNJbWcKTsxnicyN96xacSbPoasBKbL18Pt5Gr26CGwkQqdRTfsjSLrdGA3Lk45S4cib2wTF3x6pxcLqwBamTX4e/*,xprv9vCaBuPS2ysJVFfd3WzjZvuU6R2Sa8HPp67b12Fngk3xqKv6vsKqN4zpV27ux3gPBeKXAMemUVYsnku1DWcS9RBrQQhbZkpPgFJf3e8suwa/*,xprv9u7YcwvvJu5MWBxP3PJNwTCeU4MZ3bizJjoz4KXpcvXHiDaQczHymYyFj1xnon4JTK1mm3gsTeneYAiY93NhQuSw67M8m7CD1hA5hih13hh/*,xprv9uJr77SYGrVqQeGbntZnwPMcynL899d2MDcP5HZBSUikGZ4qGHHf9KEzNCyhwrkmwu6yEmsnwNNH4scL2jgFGufNUrqZTBgXY8RrGCx3Xed/*))#y6wgv4mt" "[0,5]"

Returns A list of address generated from pub keys:
[
  "bc1qfwch8t9sglgk8hncwkhv7hv45p0hgpa2mw0sxs27wncghjesf68qe96l5f",
  "bc1qa45r7c2rt4zgwjkme66nvdgl4wjdew84kmf5d26wjvpflut54reqa97fas",
  "bc1qjgtvj7kzekkdvs0gzrqte8k0q49x4x42klcu5sdj7xr7wj9eu49s5a8f0l",
  "bc1qtdpm92p0wrz7u7fmpl4rl68gjyatmsymhq5mze6hj6rwx058se7sc58tc9",
  "bc1qsmx5w7jh286tsk64j6faygfr5j34wcqnehsa6aq70jmtgdyek55sx5qdhj",
  "bc1qe5n9hjrvyhenshe09lx043mj9dpfcqvcrfzggs40k8ctuzvyxqeswxm5dq"
]

importmulti '[{ "desc": "wsh(multi(3,xprv9utKjQELg86Yy7iVpNo5B1NGAMZN6Tn6prJeoYiZoQ1SaDD3WFTtJ5wLXpkAveSob1QNManFbY25NzUZR8ZsGYNpBx6Vc27ivNxoTaKYapD/*,xprv9uh8xzLrjNSgdhQjJs9z8Ki2S6XqEZYyFd9ghL5K4uJRZY7cd16txqh8sdUQxKxSi9rfz7yjbdzp6VUid1FnxBq2ja93evAqHNMd4fAftmv/*,xprv9vYuNPBGfch59jAJjSBoGr9AE3Yn3BUWrbwBrVUqx5GrjUnMrKXHy5xcbpmpHBD25EYH7kL6VsoW7XwSHL9uR2BK6dUzXd2BCwjEy9Rq373/*,xprv9ujXfgzcPY2gW8rijnvxpNJbWcKTsxnicyN96xacSbPoasBKbL18Pt5Gr26CGwkQqdRTfsjSLrdGA3Lk45S4cib2wTF3x6pxcLqwBamTX4e/*,xprv9vCaBuPS2ysJVFfd3WzjZvuU6R2Sa8HPp67b12Fngk3xqKv6vsKqN4zpV27ux3gPBeKXAMemUVYsnku1DWcS9RBrQQhbZkpPgFJf3e8suwa/*,xprv9u7YcwvvJu5MWBxP3PJNwTCeU4MZ3bizJjoz4KXpcvXHiDaQczHymYyFj1xnon4JTK1mm3gsTeneYAiY93NhQuSw67M8m7CD1hA5hih13hh/*,xprv9uJr77SYGrVqQeGbntZnwPMcynL899d2MDcP5HZBSUikGZ4qGHHf9KEzNCyhwrkmwu6yEmsnwNNH4scL2jgFGufNUrqZTBgXY8RrGCx3Xed/*))#y6wgv4mt", "timestamp": "now", "range": [0,5], "watchonly": false, "label": "test" }]' '{"rescan": true}'

SEND MONEY TO ADDRESS

SEND PUB KEY DESCRIPTOR TO ONLINE

ONLINE

importmulti '[{ "desc": "wsh(multi(3,xpub68sg8umEWVerBbnxvQL5Y9JziPPrVvVxC5EFbw8BMjYRT1YC3nn8qtFpP6xi4T9GT7GZinqwWm6DnNi1b8AzMyNYGBQ5Gj6L2be6jJTnFno/*,xpub68gVNVskZjzyrBVCQtgzVTekz8NKe2Gpcr5HViUvdEqQSLSmAYR9We1cisTaiHFTQmKc5QSmrV26HEPoLHMf6hZbVpMznNju2r9jA4QNV6w/*,xpub69YFmtiAVzFNNDEmqTiodz5tn5PGSeCNDprnestTWQoqcH7WPrqYWtH6T5CGjdQFhpdMZy1MeSpsf2i1ypAtVTQs5jbepZHAseejXZBThm7/*,xpub68it5CXWDuayicwBqpTyBWFL4e9xHRWZzCHjuLzDzvvnTfWU8sKNwgPkhLUpRe6vu9woh1HZUZNtfKMvEyM4akAAYMVEGmxd3JvxvA8JoPY/*,xpub69BvbQvKsMRbhjk69YXjw4rCeSrvyb1FBK3BoQfQF5awi8FFUQe5usKJLK3R5AsGrfi8xB4WhjQkWadXibVWCWwpD1nYFueogrdzha3KTbn/*,xpub686u2TTp9Gdeig2r9QqPJb9P26C3T4SqfxjarhwSBG4Gb1uZAXcEKMHjaHpKJzoC8a1J5v1sCtcnyN8FtcVsYwQ1UUThCNzmbR9tPQcaZgf/*,xpub68JCWcyS7E48d8M4tv6oJXJMXpAcYcLsiSXysfxnzpFj9MPyopbuh7ZUDUmNhEzVr31DrDTYMp9srH8ZgS9YRZTpguCjGyDZFeppeY6VLow/*))#veumqwwd", "timestamp": "now", "range": [0,5], "watchonly": false, "label": "test" }]' '{"rescan": true}'


listunspent:

{
    "txid": "d21d46a91ab02cbb8da058198d9f2982de68d488e41d21068b30a975f2888a2c",
    "vout": 1,
    "address": "bc1qfwch8t9sglgk8hncwkhv7hv45p0hgpa2mw0sxs27wncghjesf68qe96l5f",
    "label": "test",
    "witnessScript": "53210288b3240ca68b1e1f644ae5f47e6e383c72c9eea8bfe6ceda0a884dc9661a0e23210362632fbadaff94d697269ad0fb001e0b96700ed84255322aca00602cfe991c9b2102af4fc49b2dcdfd215f46e5d75ec7ac0ac1eafe47d405b69aba8a833fae81b71d210342f6f11f5c7060bd785321acf4e9d915d616037ce1992345fdb626a804adf7c2210217b014d796b674425e2d6bb3c41986f2f6ec64a8745caead277932962236e11721035c0674854298ce2ec310d9ec86ab8ed09c2dee6cbcfd94a4514762a793384bef21021cf2051304198fdc7938c0e682389702d090d91ce28ca306b37b49957426f6e757ae",
    "scriptPubKey": "00204bb173acb047d163de7875aecf5d95a05f7407aadb9f03415e74f08bcb304e8e",
    "amount": 0.00031539,
    "confirmations": 5,
    "spendable": false,
    "solvable": true,
    "desc": "wsh(multi(3,[e4e8880d/0]0288b3240ca68b1e1f644ae5f47e6e383c72c9eea8bfe6ceda0a884dc9661a0e23,[e3f73b2c/0]0362632fbadaff94d697269ad0fb001e0b96700ed84255322aca00602cfe991c9b,[9e07bfb5/0]02af4fc49b2dcdfd215f46e5d75ec7ac0ac1eafe47d405b69aba8a833fae81b71d,[b9c07887/0]0342f6f11f5c7060bd785321acf4e9d915d616037ce1992345fdb626a804adf7c2,[689fd984/0]0217b014d796b674425e2d6bb3c41986f2f6ec64a8745caead277932962236e117,[0bcec00f/0]035c0674854298ce2ec310d9ec86ab8ed09c2dee6cbcfd94a4514762a793384bef,[ddabbd40/0]021cf2051304198fdc7938c0e682389702d090d91ce28ca306b37b49957426f6e7))#08uplthh",
    "safe": true
  }

  SEND LISTUNSPENT DATA TO OFFLINE

  OFFLINE
  Delete wallet!!!!!

  getdescriptorinfo "wsh(multi(3,xprv9utKjQELg86Yy7iVpNo5B1NGAMZN6Tn6prJeoYiZoQ1SaDD3WFTtJ5wLXpkAveSob1QNManFbY25NzUZR8ZsGYNpBx6Vc27ivNxoTaKYapD/*,xprv9uh8xzLrjNSgdhQjJs9z8Ki2S6XqEZYyFd9ghL5K4uJRZY7cd16txqh8sdUQxKxSi9rfz7yjbdzp6VUid1FnxBq2ja93evAqHNMd4fAftmv/*,xprv9vYuNPBGfch59jAJjSBoGr9AE3Yn3BUWrbwBrVUqx5GrjUnMrKXHy5xcbpmpHBD25EYH7kL6VsoW7XwSHL9uR2BK6dUzXd2BCwjEy9Rq373/*,xpub68it5CXWDuayicwBqpTyBWFL4e9xHRWZzCHjuLzDzvvnTfWU8sKNwgPkhLUpRe6vu9woh1HZUZNtfKMvEyM4akAAYMVEGmxd3JvxvA8JoPY/*,xpub69BvbQvKsMRbhjk69YXjw4rCeSrvyb1FBK3BoQfQF5awi8FFUQe5usKJLK3R5AsGrfi8xB4WhjQkWadXibVWCWwpD1nYFueogrdzha3KTbn/*,xpub686u2TTp9Gdeig2r9QqPJb9P26C3T4SqfxjarhwSBG4Gb1uZAXcEKMHjaHpKJzoC8a1J5v1sCtcnyN8FtcVsYwQ1UUThCNzmbR9tPQcaZgf/*,xpub68JCWcyS7E48d8M4tv6oJXJMXpAcYcLsiSXysfxnzpFj9MPyopbuh7ZUDUmNhEzVr31DrDTYMp9srH8ZgS9YRZTpguCjGyDZFeppeY6VLow/*))"

Returns the same disciptor with checksum:
￼
{
  "descriptor": "wsh(multi(3,xpub68sg8umEWVerBbnxvQL5Y9JziPPrVvVxC5EFbw8BMjYRT1YC3nn8qtFpP6xi4T9GT7GZinqwWm6DnNi1b8AzMyNYGBQ5Gj6L2be6jJTnFno/*,xpub68gVNVskZjzyrBVCQtgzVTekz8NKe2Gpcr5HViUvdEqQSLSmAYR9We1cisTaiHFTQmKc5QSmrV26HEPoLHMf6hZbVpMznNju2r9jA4QNV6w/*,xpub69YFmtiAVzFNNDEmqTiodz5tn5PGSeCNDprnestTWQoqcH7WPrqYWtH6T5CGjdQFhpdMZy1MeSpsf2i1ypAtVTQs5jbepZHAseejXZBThm7/*,xpub68it5CXWDuayicwBqpTyBWFL4e9xHRWZzCHjuLzDzvvnTfWU8sKNwgPkhLUpRe6vu9woh1HZUZNtfKMvEyM4akAAYMVEGmxd3JvxvA8JoPY/*,xpub69BvbQvKsMRbhjk69YXjw4rCeSrvyb1FBK3BoQfQF5awi8FFUQe5usKJLK3R5AsGrfi8xB4WhjQkWadXibVWCWwpD1nYFueogrdzha3KTbn/*,xpub686u2TTp9Gdeig2r9QqPJb9P26C3T4SqfxjarhwSBG4Gb1uZAXcEKMHjaHpKJzoC8a1J5v1sCtcnyN8FtcVsYwQ1UUThCNzmbR9tPQcaZgf/*,xpub68JCWcyS7E48d8M4tv6oJXJMXpAcYcLsiSXysfxnzpFj9MPyopbuh7ZUDUmNhEzVr31DrDTYMp9srH8ZgS9YRZTpguCjGyDZFeppeY6VLow/*))#veumqwwd",
  "checksum": "zr5kwyk5",
  "isrange": true,
  "issolvable": true,
  "hasprivatekeys": true
}

#run with only 3 xprivs and 4 xpubs
importmulti '[{ "desc": "wsh(multi(3,xprv9utKjQELg86Yy7iVpNo5B1NGAMZN6Tn6prJeoYiZoQ1SaDD3WFTtJ5wLXpkAveSob1QNManFbY25NzUZR8ZsGYNpBx6Vc27ivNxoTaKYapD/*,xprv9uh8xzLrjNSgdhQjJs9z8Ki2S6XqEZYyFd9ghL5K4uJRZY7cd16txqh8sdUQxKxSi9rfz7yjbdzp6VUid1FnxBq2ja93evAqHNMd4fAftmv/*,xprv9vYuNPBGfch59jAJjSBoGr9AE3Yn3BUWrbwBrVUqx5GrjUnMrKXHy5xcbpmpHBD25EYH7kL6VsoW7XwSHL9uR2BK6dUzXd2BCwjEy9Rq373/*,xpub68it5CXWDuayicwBqpTyBWFL4e9xHRWZzCHjuLzDzvvnTfWU8sKNwgPkhLUpRe6vu9woh1HZUZNtfKMvEyM4akAAYMVEGmxd3JvxvA8JoPY/*,xpub69BvbQvKsMRbhjk69YXjw4rCeSrvyb1FBK3BoQfQF5awi8FFUQe5usKJLK3R5AsGrfi8xB4WhjQkWadXibVWCWwpD1nYFueogrdzha3KTbn/*,xpub686u2TTp9Gdeig2r9QqPJb9P26C3T4SqfxjarhwSBG4Gb1uZAXcEKMHjaHpKJzoC8a1J5v1sCtcnyN8FtcVsYwQ1UUThCNzmbR9tPQcaZgf/*,xpub68JCWcyS7E48d8M4tv6oJXJMXpAcYcLsiSXysfxnzpFj9MPyopbuh7ZUDUmNhEzVr31DrDTYMp9srH8ZgS9YRZTpguCjGyDZFeppeY6VLow/*))#zr5kwyk5", "timestamp": "now", "range": [0,5], "watchonly": false, "label": "test" }]' '{"rescan": true}'

Result:
[
  {
    "success": true,
    "warnings": [
      "Some private keys are missing, outputs will be considered watchonly. If this is intentional, specify the watchonly flag."
    ]
  }
]

createrawtransaction '[{"txid": "d21d46a91ab02cbb8da058198d9f2982de68d488e41d21068b30a975f2888a2c","vout": 1}]' '[{"3KFPe9S8h9NqVoq7E2GTgaqcAGfDLy33Wo": 0.0001},{"bc1qjgtvj7kzekkdvs0gzrqte8k0q49x4x42klcu5sdj7xr7wj9eu49s5a8f0l": 0.0002}]'
Result:
02000000012c8a88f275a9308b06211de488d468de82299f8d1958a08dbb2cb01aa9461dd20100000000ffffffff02102700000000000017a914c09993e93347073acf633c6bd5c4f984e2293f4b87204e0000000000002200209216c97ac2cdacd641e810c0bc9ecf054a6a9aaab7f1ca41b2f187e748b9e54b00000000

signrawtransactionwithwallet '02000000012c8a88f275a9308b06211de488d468de82299f8d1958a08dbb2cb01aa9461dd20100000000ffffffff02102700000000000017a914c09993e93347073acf633c6bd5c4f984e2293f4b87204e0000000000002200209216c97ac2cdacd641e810c0bc9ecf054a6a9aaab7f1ca41b2f187e748b9e54b00000000' '[{"txid": "d21d46a91ab02cbb8da058198d9f2982de68d488e41d21068b30a975f2888a2c","vout": 1,"scriptPubKey": "00204bb173acb047d163de7875aecf5d95a05f7407aadb9f03415e74f08bcb304e8e","witnessScript": "53210288b3240ca68b1e1f644ae5f47e6e383c72c9eea8bfe6ceda0a884dc9661a0e23210362632fbadaff94d697269ad0fb001e0b96700ed84255322aca00602cfe991c9b2102af4fc49b2dcdfd215f46e5d75ec7ac0ac1eafe47d405b69aba8a833fae81b71d210342f6f11f5c7060bd785321acf4e9d915d616037ce1992345fdb626a804adf7c2210217b014d796b674425e2d6bb3c41986f2f6ec64a8745caead277932962236e11721035c0674854298ce2ec310d9ec86ab8ed09c2dee6cbcfd94a4514762a793384bef21021cf2051304198fdc7938c0e682389702d090d91ce28ca306b37b49957426f6e757ae","amount": 0.00031539}]'

Result:
020000000001012c8a88f275a9308b06211de488d468de82299f8d1958a08dbb2cb01aa9461dd20100000000ffffffff02102700000000000017a914c09993e93347073acf633c6bd5c4f984e2293f4b87204e0000000000002200209216c97ac2cdacd641e810c0bc9ecf054a6a9aaab7f1ca41b2f187e748b9e54b05004730440220095a48cae7cee56238b760242055a9cf9c9c3e48e4b23e7954d5f6594ba4c9fc0220680dd29cad22e011cf04029336b2515026c8df53a1cc5cfa8d88f41af13a1aa10147304402201cd775f741469dbce067b66b2b08bd040c5edcab11bb96af450ed494d71e69f0022063416b2a8e2177b7e8c56328fcf1fea9f6e61bcc514d1a69d984bed5a4647f22014730440220398558ececf1e831375d8a95170b722b696f608e367118c4c7ec8dbd7afe52be02206fb90988362adc084b8f54da04b10c3e488208ce2d7d5a07b4d7841d1eb0f62f01f153210288b3240ca68b1e1f644ae5f47e6e383c72c9eea8bfe6ceda0a884dc9661a0e23210362632fbadaff94d697269ad0fb001e0b96700ed84255322aca00602cfe991c9b2102af4fc49b2dcdfd215f46e5d75ec7ac0ac1eafe47d405b69aba8a833fae81b71d210342f6f11f5c7060bd785321acf4e9d915d616037ce1992345fdb626a804adf7c2210217b014d796b674425e2d6bb3c41986f2f6ec64a8745caead277932962236e11721035c0674854298ce2ec310d9ec86ab8ed09c2dee6cbcfd94a4514762a793384bef21021cf2051304198fdc7938c0e682389702d090d91ce28ca306b37b49957426f6e757ae00000000

SEND SIGNED TRANS HEX TO ONLINE

ONLINE
￼
sendrawtransaction '020000000001012c8a88f275a9308b06211de488d468de82299f8d1958a08dbb2cb01aa9461dd20100000000ffffffff02102700000000000017a914c09993e93347073acf633c6bd5c4f984e2293f4b87204e0000000000002200209216c97ac2cdacd641e810c0bc9ecf054a6a9aaab7f1ca41b2f187e748b9e54b05004730440220095a48cae7cee56238b760242055a9cf9c9c3e48e4b23e7954d5f6594ba4c9fc0220680dd29cad22e011cf04029336b2515026c8df53a1cc5cfa8d88f41af13a1aa10147304402201cd775f741469dbce067b66b2b08bd040c5edcab11bb96af450ed494d71e69f0022063416b2a8e2177b7e8c56328fcf1fea9f6e61bcc514d1a69d984bed5a4647f22014730440220398558ececf1e831375d8a95170b722b696f608e367118c4c7ec8dbd7afe52be02206fb90988362adc084b8f54da04b10c3e488208ce2d7d5a07b4d7841d1eb0f62f01f153210288b3240ca68b1e1f644ae5f47e6e383c72c9eea8bfe6ceda0a884dc9661a0e23210362632fbadaff94d697269ad0fb001e0b96700ed84255322aca00602cfe991c9b2102af4fc49b2dcdfd215f46e5d75ec7ac0ac1eafe47d405b69aba8a833fae81b71d210342f6f11f5c7060bd785321acf4e9d915d616037ce1992345fdb626a804adf7c2210217b014d796b674425e2d6bb3c41986f2f6ec64a8745caead277932962236e11721035c0674854298ce2ec310d9ec86ab8ed09c2dee6cbcfd94a4514762a793384bef21021cf2051304198fdc7938c0e682389702d090d91ce28ca306b37b49957426f6e757ae00000000'

Result:
01e31ea1c72c09ee3f7f16c353830b392474748aa42ec434e459765de55cbc13