run 
getnewaddress / dumpprivkey(address)
address / privkeys:

getnewaddress / dumpprivkey(3B8Lb459wZQHW7eBvAhz8tJ6Dn98eUKC7b)
3B8Lb459wZQHW7eBvAhz8tJ6Dn98eUKC7b / KwYB4iKUvK6jthtmzmhrQiTNVFnVWL6Bxptizzp5Q2uQnAhCM7yx

getnewaddress / dumpprivkey(3NT4pSSHNGgvcTrhXGWCF5VfjjWfgJcj92)
3NT4pSSHNGgvcTrhXGWCF5VfjjWfgJcj92 / L4SSf1vbr8Utcq2bpLXdUSRKJu9Qfx9EE2c2QxivcEp3mn369ZcT

getnewaddress / dumpprivkey(35Khdwn8jjpdxvEbPHfpvbLvE75uvkgTsT)
35Khdwn8jjpdxvEbPHfpvbLvE75uvkgTsT / KwQp2DMRu2uKR4KGZrynS93QyqUC19eig6oCH7mNNGsyu9FgVJpW


importprivkey KwYB4iKUvK6jthtmzmhrQiTNVFnVWL6Bxptizzp5Q2uQnAhCM7yx 1 false

importprivkey L4SSf1vbr8Utcq2bpLXdUSRKJu9Qfx9EE2c2QxivcEp3mn369ZcT 2 false

importprivkey KwQp2DMRu2uKR4KGZrynS93QyqUC19eig6oCH7mNNGsyu9FgVJpW 3 false

getaddressesbylabel 1

Result:
{
  "1Nyqbyq8iYrhT1eHVqtUcKxMFzrzUNseuZ": {
    "purpose": "receive"
  },
  "3B8Lb459wZQHW7eBvAhz8tJ6Dn98eUKC7b": {
    "purpose": "receive"
  },
  "bc1q7ydgr4p6v0q763e5u7x5uquluruued7a02xtd2": {
    "purpose": "receive"
  }
}

getaddressesbylabel 2
Result:
{
  "1NbL6N3bSk6UYXLdQmTVkCrAv3wNGwNCiG": {
    "purpose": "receive"
  },
  "3NT4pSSHNGgvcTrhXGWCF5VfjjWfgJcj92": {
    "purpose": "receive"
  },
  "bc1qanvt33z0jx94nqcl6nwpsu5jjeh3cfnqdqkfd8": {
    "purpose": "receive"
  }
}

getaddressesbylabel 3
Result:
{
  "1NJC5eQ4zPcyJPDdhEoEi2pgdnu3jkqtez": {
    "purpose": "receive"
  },
  "35Khdwn8jjpdxvEbPHfpvbLvE75uvkgTsT": {
    "purpose": "receive"
  },
  "bc1qaxd0v3tdsnurkf6wmktdzeflrk59q3ru2mnnhp": {
    "purpose": "receive"
  }
}

addmultisigaddress 2 '["bc1q7ydgr4p6v0q763e5u7x5uquluruued7a02xtd2","bc1qanvt33z0jx94nqcl6nwpsu5jjeh3cfnqdqkfd8","bc1qaxd0v3tdsnurkf6wmktdzeflrk59q3ru2mnnhp"]'
Result:
{
  "address": "32RaKj2ahE9sg82qQ3XxW2tZMiMCQEVuJ5",
  "redeemScript": "522102c927448a6a6d89b607307feef104188a448b606b2781e808ae2b7fda9e0e90352102ab2a9cdc3b9d656aafa7cf1f5047ac926b35f64808d8c75c7875455684dc4bde21032a614adf53eda10271d89d454d4a3bf7551f92c6c21b8714c9ec47e605c6df1453ae"
}

importaddress 32RaKj2ahE9sg82qQ3XxW2tZMiMCQEVuJ5 '' false


listunspent
Result:
{
    "txid": "12e253be172234367200196e7d36deb8fbab3845ddf10e51b836f67668a9d1c2",
    "vout": 0,
    "address": "32RaKj2ahE9sg82qQ3XxW2tZMiMCQEVuJ5",
    "label": "",
    "scriptPubKey": "a914080c842b8951fd0e5adb91138b0a4a3a6904ceb587",
    "amount": 0.00061825,
    "confirmations": 1,
    "spendable": false,
    "solvable": false,
    "safe": true
  }

importprivkey KwYB4iKUvK6jthtmzmhrQiTNVFnVWL6Bxptizzp5Q2uQnAhCM7yx "" false

importprivkey L4SSf1vbr8Utcq2bpLXdUSRKJu9Qfx9EE2c2QxivcEp3mn369ZcT "" false

importprivkey KwQp2DMRu2uKR4KGZrynS93QyqUC19eig6oCH7mNNGsyu9FgVJpW "" false

createrawtransaction '[{"txid": "12e253be172234367200196e7d36deb8fbab3845ddf10e51b836f67668a9d1c2","vout": 0}]' '[{"33GYLS1nvccave5ZU8A97igxGeu6WFyWfo": 0.0002},{"32RaKj2ahE9sg82qQ3XxW2tZMiMCQEVuJ5": 0.0004}]'
Result:
0200000001c2d1a96876f636b8510ef1dd4538abfbb8de367d6e19007236342217be53e2120000000000ffffffff02204e00000000000017a914114f3d33cc0a3d0c54d3c219f7d263474f0f389987409c00000000000017a914080c842b8951fd0e5adb91138b0a4a3a6904ceb58700000000

signrawtransactionwithkey '0200000001c2d1a96876f636b8510ef1dd4538abfbb8de367d6e19007236342217be53e2120000000000ffffffff02204e00000000000017a914114f3d33cc0a3d0c54d3c219f7d263474f0f389987409c00000000000017a914080c842b8951fd0e5adb91138b0a4a3a6904ceb58700000000' '["KwYB4iKUvK6jthtmzmhrQiTNVFnVWL6Bxptizzp5Q2uQnAhCM7yx","L4SSf1vbr8Utcq2bpLXdUSRKJu9Qfx9EE2c2QxivcEp3mn369ZcT"]' '[{"txid": "12e253be172234367200196e7d36deb8fbab3845ddf10e51b836f67668a9d1c2","vout": 0,"scriptPubKey": "a914080c842b8951fd0e5adb91138b0a4a3a6904ceb587","redeemScript": "522102c927448a6a6d89b607307feef104188a448b606b2781e808ae2b7fda9e0e90352102ab2a9cdc3b9d656aafa7cf1f5047ac926b35f64808d8c75c7875455684dc4bde21032a614adf53eda10271d89d454d4a3bf7551f92c6c21b8714c9ec47e605c6df1453ae","amount": 0.00061825}]'

Result:
{
  "hex": "02000000000101c2d1a96876f636b8510ef1dd4538abfbb8de367d6e19007236342217be53e21200000000232200205104b174dfb709d198f702fe9b8c04699e151225493919ce14f4511cd0b1abccffffffff02204e00000000000017a914114f3d33cc0a3d0c54d3c219f7d263474f0f389987409c00000000000017a914080c842b8951fd0e5adb91138b0a4a3a6904ceb587040047304402205d9dbfc7e2f98473c21a1ef238bd0bb01295409ec215abf6f4610770e729bf3b02207a0cf403df1f2f056d8fe1b9aca56dd407209c788a13115324a6b4bade3813530147304402201b14854b2683f1e9c45c090cc49bac3df3a336f057955bd8c2d61e262f7fc7af02200f168c975e1b9852bfd4d550b0b304111bea14e7a6c88ed7b40649de79d826400169522102c927448a6a6d89b607307feef104188a448b606b2781e808ae2b7fda9e0e90352102ab2a9cdc3b9d656aafa7cf1f5047ac926b35f64808d8c75c7875455684dc4bde21032a614adf53eda10271d89d454d4a3bf7551f92c6c21b8714c9ec47e605c6df1453ae00000000",
  "complete": true
}

￼
sendrawtransaction '02000000000101c2d1a96876f636b8510ef1dd4538abfbb8de367d6e19007236342217be53e21200000000232200205104b174dfb709d198f702fe9b8c04699e151225493919ce14f4511cd0b1abccffffffff02204e00000000000017a914114f3d33cc0a3d0c54d3c219f7d263474f0f389987409c00000000000017a914080c842b8951fd0e5adb91138b0a4a3a6904ceb587040047304402205d9dbfc7e2f98473c21a1ef238bd0bb01295409ec215abf6f4610770e729bf3b02207a0cf403df1f2f056d8fe1b9aca56dd407209c788a13115324a6b4bade3813530147304402201b14854b2683f1e9c45c090cc49bac3df3a336f057955bd8c2d61e262f7fc7af02200f168c975e1b9852bfd4d550b0b304111bea14e7a6c88ed7b40649de79d826400169522102c927448a6a6d89b607307feef104188a448b606b2781e808ae2b7fda9e0e90352102ab2a9cdc3b9d656aafa7cf1f5047ac926b35f64808d8c75c7875455684dc4bde21032a614adf53eda10271d89d454d4a3bf7551f92c6c21b8714c9ec47e605c6df1453ae00000000'

Result:
f32251b9df5ef4942adc81edb3d04c9293b57be273348becc147112f4f3dfc66











xprv9uCibHTvNpZDv9NZzoj3agyDLcLfoYrjcYjzgXzUDHu9ngdqohztmFuTVtghy7gadbUoVuDPRyvMXqtBnhd34iotNKjEg29Gb3XjFG9D1Jb

xpub68C4znzpDC7X8dT36qG3wpuwteBAD1aaymfbUvQ5mdS8fUxzMFK9K4DwMAMaauscuv1KbzjHUq9zB1PMGrksyDhmFkxkzPjGwoZKUT6gDGu


xprv9vPnVEEVBp3EuK1MVe8VXoS3A5XbkjeawgaZPzc9SnMKom29aX6yrJ6xQoqE7sLTey3tJ3QopR4SxPa4gUJXWoGWwCPS7Fh2xwSuMjsX8be

xpub69P8tjmP2BbY7o5pbffVtwNmi7N6ACNSJuWACP1m17tJgZMJ84REQ6RSG6FEsG2DWATFRzQHEPtpTPDUQFm5cqMsm3JuMfYGwJqa7HdAvQZ


xprv9uVfisDMv2AkvRi37j1sTEWtnvuo837ZHMbtScGGhutzf4b9gXJppjaVRnwvdj3QnJ2MAm1BiKR5wCgw2U1FYJ9ToD875YQhGi7DQZV2vru

xpub68V28NkFkPj48unWDkYspNTdLxkHXVqQeaXVEzftGFRyXrvJE4d5NXtyH6FyrwQHAUGqxnoY35fkyvaw79kHF3EVqHhFJJGsNwib6pR5BSy


getdescriptorinfo "wsh(multi(2,xpub68C4znzpDC7X8dT36qG3wpuwteBAD1aaymfbUvQ5mdS8fUxzMFK9K4DwMAMaauscuv1KbzjHUq9zB1PMGrksyDhmFkxkzPjGwoZKUT6gDGu/*,xpub69P8tjmP2BbY7o5pbffVtwNmi7N6ACNSJuWACP1m17tJgZMJ84REQ6RSG6FEsG2DWATFRzQHEPtpTPDUQFm5cqMsm3JuMfYGwJqa7HdAvQZ/*,xpub68V28NkFkPj48unWDkYspNTdLxkHXVqQeaXVEzftGFRyXrvJE4d5NXtyH6FyrwQHAUGqxnoY35fkyvaw79kHF3EVqHhFJJGsNwib6pR5BSy/*))"

Returns the same disciptor with checksum:
{
  "descriptor": "wsh(multi(2,xpub68C4znzpDC7X8dT36qG3wpuwteBAD1aaymfbUvQ5mdS8fUxzMFK9K4DwMAMaauscuv1KbzjHUq9zB1PMGrksyDhmFkxkzPjGwoZKUT6gDGu/*,xpub69P8tjmP2BbY7o5pbffVtwNmi7N6ACNSJuWACP1m17tJgZMJ84REQ6RSG6FEsG2DWATFRzQHEPtpTPDUQFm5cqMsm3JuMfYGwJqa7HdAvQZ/*,xpub68V28NkFkPj48unWDkYspNTdLxkHXVqQeaXVEzftGFRyXrvJE4d5NXtyH6FyrwQHAUGqxnoY35fkyvaw79kHF3EVqHhFJJGsNwib6pR5BSy/*))#554x64ul",
  "checksum": "554x64ul",
  "isrange": true,
  "issolvable": true,
  "hasprivatekeys": false
}

deriveaddresses "wsh(multi(2,xpub68C4znzpDC7X8dT36qG3wpuwteBAD1aaymfbUvQ5mdS8fUxzMFK9K4DwMAMaauscuv1KbzjHUq9zB1PMGrksyDhmFkxkzPjGwoZKUT6gDGu/*,xpub69P8tjmP2BbY7o5pbffVtwNmi7N6ACNSJuWACP1m17tJgZMJ84REQ6RSG6FEsG2DWATFRzQHEPtpTPDUQFm5cqMsm3JuMfYGwJqa7HdAvQZ/*,xpub68V28NkFkPj48unWDkYspNTdLxkHXVqQeaXVEzftGFRyXrvJE4d5NXtyH6FyrwQHAUGqxnoY35fkyvaw79kHF3EVqHhFJJGsNwib6pR5BSy/*))#554x64ul" "[0, 199]"

Returns A list of address generated from pub keys:

[
  "bc1qgsaejp5t66pg6ascfdz0e9qvcpgzwknl8uycu7jlx54rv96ege7q9ddglu",
  "bc1qxhfj4va64tznqj0k6huymum7qravlcd3hf6nns8ewwlcsuwene0sdlv256",
  "bc1qctz60n4ym467ynxgusr933hsnan35km8sdunn0tg83j60h9xhxgqwgggtm",
  "bc1qlvatnfpxl82q67myqjvrwdmu3jrghm62chcqgapmse9mdfhey64sfx9053",
  "bc1q6melys9lryap30hnkepc2gh7dc09zltxrawug5xttre3d6n3ah5s2tzknk",
  "bc1q24se2puvx85efaypa3ytsm4xyq6plt30aauanx0fwhl9qyknvpjs3t89y0",
  "bc1qyvhehn0yt2uknsakv6tlk00k75tgwqxflpe77qhatp59etrgr8gquqwtej",
  "bc1qvdthc8mrsf3m3drsu29gmzngdha8jzq0a0exwnp88h4e8wfupqfs9pevax",
  "bc1q6psu30ggslt27u9mcj2n6c9ysg60j7rj4al3tsgpqpv4luej68uslzphjk",
  "bc1qtdag4rrs47dhxje56mg625jrd749msr4wgc96u6dmmq74q2hweaswxsajz",
  "bc1q3f4qk9un8dqh03wgcmk5aauf4xgcla7huv4vnrestgafn39arjvspknjde",
  "bc1qzry8xqlrzm7xfawnjjkjtj4ut0pmxx803x5kmupjn3f2js2wp49qnxvygg",
  "bc1qzs8a007v6857lpzhh39vzjxp27pucgmsdmztsxe8psd9hn5vdmqsuc65eh",
  "bc1q8muv6yrru0k3p63m380amwp2a62p826dnmn2uj89hlsckp7j3a8q65zwn9",
  "bc1qxuyz3tx34z6vxl9nz6pfgk9kp2trka0056sh7l7pr88zrvvnu3csakhlsp",
  "bc1qe2mpftnznpp7w226nte36555jdg3g46dlwy88td3sfjdrjzcen0qhgyr7y",
  "bc1qaa6028735uqwvgqpmtpraqka0vq5n087vsqpz7avqvs4ksv2yu2q7nadz2",
  "bc1qhh3j07r6fsp5akvqrrrwjmvv2kuad6kx0nuvmwfu8znguvzyzl8q0pnan4",
  "bc1q0u55kt7qnvy5ez7uhjvedjj2tj2n7hgkjy9kmz8w64advjxarkvsnu5akl",
  "bc1qfvr47xeqj42jzg8zkazk0u5jcwnwfz9358feyrv4nfaxyp2grlpsxk03cg",
  "bc1qxplh03qc3juj9sk2xsceaae2vf7wn79ccererx99cfgg048s7kls6ey5wf",
  "bc1q7zr3dphh9uhqq6qkmm7zz3c5sudvjd620fjv76fvg3f0w2ttnd9sjj49yx",
  "bc1qsz7hw3fnuqmqqngxyyzr0w9u87gqxk42ugmzxu35tfgrt8nmu5hq0nu6zv",
  "bc1qa9mza24nkf50lckt65qe8aefm9s7j7r0kgf45vww9tfrdj0xw7xs7022ys",
  "bc1qszm00h6psqmtnfsczpe8nddkq9nd3ejyr7mz7snxylc62tzdkwuqpmjpnt",
  "bc1q7tk25ux6y6zc8h3x35falj2w9x7ghgzf7ya0vl483kpvywl638nq633fv6",
  "bc1qurfwmra2fk8y33jmn6jam95zwr9jqkq9h4nlz5dzf3ta9024yruqnvhkx6",
  "bc1q2lgr0ca4t36u0cm3tnz0qp9537t7h4ttv2e54fk47cwx7n27d7jqdcm24y",
  "bc1qx2uxeegx3y3xmecsx400s5wsm7gvsv97rfd6rmr6dlxy3pf4mmts42gaxg",
  "bc1q8ec4xmmc83fmdqnw4qv7rzwa6g9u0585xmh76s9yhvzwfff8k7gqwds9zg",
  "bc1qyt40x4ucqypcurxm9h3tnreyjfq3rn4d758hp88x2hks85ll42gqs5euc7",
  "bc1qhl6ew74gna7uzp0n6y3pnjkx4jrk4g8eey47euxjl2hl03hehlxsdcccxn",
  "bc1q4w39f980nn68dpgkvme6gsfsz3chdca0mpwpdmnqharfag4hmkfqlqlwgp",
  "bc1q664rs74ydqxqht5j54kdqu2s2c80t6zs3g80g73y0vq0t9dj2rusqu77jf",
  "bc1qvmc9ts5g2a3k72atuvhdqpp5axceagr3ruvnwalyj70d8fa5wz4qx4ktrc",
  "bc1qcl3ltcy4fzjnf9z44dw82wm3ttekh6qr96y26fn5vv5cwff43a4s42yvt3",
  "bc1q9v6kgvtaq0e2ffngw8psulsjs0k5mpw2ss04w9wfeuta56kah4mslahu64",
  "bc1qjrp3vtud2rh5xt8hpla3kqxpt467gr42jq762xn2k8ult6h756ws5eg8mv",
  "bc1qaj5wj2uew79zmek6eq0an9f238ecsyrxmnes6luen2dfxdfm36rq685r5k",
  "bc1qj63xezqev0r8sg2nkd6zgclfzethyunff46zfwe6kamq4am6a8gshfleku",
  "bc1q9sdl4ldgh48a7nx2dwgltlratrj93czgtxcp5n3r5yhyjlzjfdpq89yyh2",
  "bc1q0kx03h48fg6qdxqm0ye2pextz0t5aa7yxpxrewespc5zrsss9f4sskmawq",
  "bc1qs48nku0vc3ksl2lf3rqntr3kcfqjq8dp97dhtv2xqf99j4rrw92s0e9yyt",
  "bc1q2keh3ytgut765havw0444nu25naefhvny40glae3sjuvzuut8sasc2vpca",
  "bc1q9kweeknn7hgkhr8unmchda3fyqud4rdjcz6seanavz4rku5jchgq7y5f92",
  "bc1qcy7l658aw7y8m3su52zhavkjsa3wmerpctr26c5qgxxz94r3ppcqa8aapu",
  "bc1qqquckjnsvh6d3j03lyqnxx9wpt9lnycj2hju4zrj50nlusvcrt7sputzuw",
  "bc1qh95mmcc3zt4nkann7hspqtj5lk5kuf3620td25ce8f6m9rykt48s8l4mkv",
  "bc1qwvy75m8ny03pvrypc0awt4d4zj5z29wfpvy5r4cgdh5zk2kcpyuqcn2ar6",
  "bc1qqqvjl5lkljcrd78j3dkszzsarrfk46jgq8ld4nrprqnxvzqszemsl2wm0d",
  "bc1qs7gdrqdj7sl5c34gdtzgny8vh8npku93sd8nmqhgzvts3vvnfr9s72gr9l",
  "bc1qd2jpkxf0h0e6kzjvv58fcuu0793nufdvf98t0s0ql8m45k2y32ms6un6a8",
  "bc1qnz5e4e75vnechrt9j4c6ddfz2y3sxttudhl6t22sk2y4uzjqhfvsf5jtxa",
  "bc1q4wpvgtdzspdg5t56czkhrs9zf7ztm7h7cu2x3h6yfe5s8gwy9kpswsgr30",
  "bc1qn3tk3a0k7appdcawthv4cauwaamcl4uxg3j80ecnk43cw9qkpn0qn50906",
  "bc1quem6ky9pdatmgx932kza7nh073gppkpm9qj8kngdu63l88m7vthsf9kg7p",
  "bc1q6dlp07jgfykcvy299r4v7xjdrz0z67tka76evd6v4f459zzeycgq50rwjw",
  "bc1qfym2lerrmmydw3vxnuxy4susdzpnnt0k5cg2vf34ajm6gdnyezwsj552xl",
  "bc1qqfztgv34tsvq7jlva2pjjddupe79mq3fpww9ear5gfl7gmweq3rqvgtkp0",
  "bc1qhxwqhup4tu3mvcdalfjj08wd6deajxafvjcjgydeaa224lc0yrgsk77d32",
  "bc1qlvdcj2thps5d2jfg0efguptthgz5nmlalvnzhjemqrvqe05kelyqz6w7yd",
  "bc1qwg6tvzrswqs0wq9hhqlhf28hcy9x52gf0cgvl64dts5jvz4zwwjs53s07m",
  "bc1q63tpc0npqjjuz2hc29dzma53fv7v08a78m8pfasp0xh7th4d7unqem3jeq",
  "bc1qj6mumgx09sxjzwjlnzwskfy437s5nnck58yhjp8045jy5kf26quqh43xat",
  "bc1qykxz5qxpyvqv8m8jlaxxtvrzrvu0clcta7rrx6cd98ukfdpr6x7sm04e9c",
  "bc1qadtd70nmngngdhx9glfkqs6z5r3lh8pzjl92tw08q59tp82yqats5xreyw",
  "bc1qqv3mg8sdygafareu9948adhcgy47nfjz5csuhk6crfaa9nvpqxaqkhme05",
  "bc1qh389z0y90l4svnkvy5lreqtl62t0wtlvx8am07a2hf4dtv8ud9jsr4ms47",
  "bc1q8vyrw3sqcf4xxwppsj7rx9cas6rnuhhxz52t7t582cksy5a3nnrqdrnu97",
  "bc1quzmh8wm5x6yla8y4yfhxewzk5eexexnu0wxcutmwpzm65ugeau6qe6lj5r",
  "bc1qemzm7k8a0f6lky6fe00szgfx2suuqvq0g7wygfcj4297d85l84sq0fha63",
  "bc1qnqv7nsvvj4svdcun3m3jtprgv9d89kryca92dcnqskc7eazlrrlsqlezmc",
  "bc1qg9et9sh84j72jq9qk67xzkfmjmkjhjp4fqlzcy7jr7uxyrt4gmns7mk0c6",
  "bc1qjmmryxqprzzzea6dr0lltflx968u4u0zy3zxa8hw9dugrj8fh7tst9pevk",
  "bc1q3mggy5glq8g2vhjk6r92jqtf2wyuc0e79l0xr7sl8h5etakh5rnq6mfmpj",
  "bc1q7ajqs8fkdes07gnt8e9d0ep7jnn0n9c65pjk4h278jjxhqa96y3qv2zwar",
  "bc1qdkglzaekftluhq9s8uptj44mhp95px9yt8dn3gej87cv62edfwrqjfakm5",
  "bc1qrw0vdnld45kmjzp94la05vv2mgeflr4sp3khwpha2dx43h9tdgfsaws0pn",
  "bc1qfasnttfmjk2wxa5vzx9l7m7cjnv836yal4ml5t9h8r4y37zqw3qqt2lzpy",
  "bc1q3x43xmdqcca97j0gfqe6yh5aesmwyvdu49vv5xx0q6u2gzaaf4dqcdfkd3",
  "bc1qtjh79vw34m64342c2mc99lktqxg50p0u7hc8dkc7rmg69rqms22sxugqe7",
  "bc1qa9570y3e3vtja0anplxmtazs48pt4402g4lde5p3sqzfd5amgsyskes3lj",
  "bc1qv2a2yspchk0854d0e3npx8qtlmuz05etfvks0w66kxdncj9utvvs5cgnrr",
  "bc1qcy4kqg7unlkhzwnmrdaej6ymyapha0qz5h05lf0q7rq3ptueqmqqk0zrmc",
  "bc1qaaf74fksx3q06tan3nt5735yvprr8u80jsldywpsct4ahju840rqdupfnc",
  "bc1qz6c5j8meesv26c5eed3r4p0uxkxj8z52s4p5dsu730e5qxc79u2qf9slvr",
  "bc1qs68sgpke6afqan93tegluhwagmqv86yavv5uq4lw697k4vm72egsh6dry3",
  "bc1quwrteruqqn5uhuty5m83tlcmdenyugdz0fj0pplg78ca0pq0pksqyp3cck",
  "bc1qqy4768gdml04sh8qxu6h67vfng7senscrfp4h9cdhnx6zw454l6q94h7lm",
  "bc1q00vzth0dr6d704ety959axkwp3tz84g2kwj6ev8edu0zamygld5qppp0w7",
  "bc1q9euegahdm80zrggmtjye3va20zc2n4ax5ljysazdtvhvmhl28pxsyr9lh2",
  "bc1qlj3c4w3a0hmk3zqn3js2f4y3k9ntp3lsp3ptyqx5eftyx6lvzmpsupakk0",
  "bc1qsfnadlczkj7rmpep92xa0mv6x3y8k0jtrwm3ts2wx5mle357ttgszcq7yy",
  "bc1q9309flwdpkjcn88n0vk6ah8dznvue09z49eug4zemmszsf6mdz2qtanc09",
  "bc1qg04lmzk82ljgkw0c3qeldep5fwvyhca48svs3egune74lye3l5wqvl9yvr",
  "bc1qd0q320tc87079jx5c67f2jwu2mq9a3cse00ar5ad2ns9jry22ves0ffz6a",
  "bc1q9s9h82p24djzhazf853g8gjrv5qdqa0mr5hjc34wa7xfwrgftfuqu8h8vc",
  "bc1qvzlttjvv65xnkad2q24v2ap25mu4g6ez8jh4gcx6grgz26n9rnsqevx0hv",
  "bc1qc2r43e3m6fyv9w8k06yytuygf5d069hdm6cvpd4wrfeyftak2q0qgdalqy",
  "bc1qvlpdfev3c65l7jtvc5ych9na96h2jsk28n8tztnf9z7j3e5x7zssy44ysa",
  "bc1qu7dwltgwn0j4xjccgsa45exukpc4eqxcrzwzw9qkg0knrvw5hmmqnvs6gm",
  "bc1qfl7kwqjd8mpvw87rufdfr4q9xmvv7xz33dcq92zcnzpypdwraqasgldulk",
  "bc1qx9h2c3qduds2qjcgn2g9q4v7fznvxqswakgsyw3tvpjpw65nmkrs67glxh",
  "bc1q0gtsfpskgyu56ekmpwq74r8fv6pm3s6rmp0l45406lhrl5lvsrtq0l6yru",
  "bc1qrqhphn7wl6yzjcjntplzllfw8l4ssx6ve45ywr5vl2kfmk4l4tnsma7g4t",
  "bc1q9k8c2ctzcr3kmydr62n0hss23cj8k7gezn6ljpv256n98t9defgsanfue9",
  "bc1qm42stda993l5t8zk7ut5l8zd7zcu0np432d26dz0tcg6tfpgcq5sy3u49e",
  "bc1qvnscr0aes26v2ycmmmzhk7s3cmscveexqz9f85z6ryt6ztacmq8s2a450e",
  "bc1qu2gxt86nudhnn4qkmdl0qlh98aks077m7txwx4jk40y7n7gn23nsfvzx59",
  "bc1qpdepwef9ch4qpsv4n49xmu79ghx8422p8clwyreq9dq4zuswsm6qzd0l0g",
  "bc1qrge7rq7kktf8y0q5kvqe32e6fttkanj3j2jlw68d7k6fykjzn3aq3nehnl",
  "bc1qqaglkzrfwrulcfm76cq9sy6ps3q82yg7mytx66z48r52mquykk4qq05j8a",
  "bc1q78dvc032v6xlgslq9ecqcuq0380m90s33kjdllwaz0t0k9rmg5qsff95x2",
  "bc1q9y0ac0jp8szalujqzq28vdamk7r40s3lu605tftvxh0lqkla7y6s0z547t",
  "bc1qm6zr56pkpewah9qmutjqpp48mcnx208qst75gvgep8sw30qhtjusdhg7ya",
  "bc1q88pqk6qtd6fs456djwr2g20hva56feklwqn7cve9ls6uhk5lw9wsyrzmcf",
  "bc1qd83685wjxqktwahyxtpcsw9rlcjf6n2wtnraejf063xjaxppenxq0c48n5",
  "bc1qkkuf80xjhnnaz3xyscagkfraxq325gydqhhcfjwa9rrn0s60dqeqqkkn3u",
  "bc1qxzt7wa7ule288f8332s4mgvpx84ffp0v0309adc6wljwd0myjass9cz2cu",
  "bc1qu4z0kqdjr59pc6spdmycug9qhle8rva05dxcxjnyqcgkhqwg4r4qwph3c3",
  "bc1q9jcsxlf9j9r3v6eyrcncl5ggq0mqjvsqn3uz3qd8e2xv54306a9qkvleaq",
  "bc1q02la6gv7ty4lct8gg4gmfypzs2xfv2w42lmzqksl60t8vdn5jqfqlcza5f",
  "bc1q29q5pewacjqrkmnfw7arqyah06q83cvtj9teddc04uh5rxt0h4wqe8f0k7",
  "bc1qup088kq7nz67rc5vzhhwg06uyuz35mk5gppcvhewtx65c4vycjzs5eevkq",
  "bc1qrm6le5fmxtx8g7875wur2emmm4tq7ywn4839j84elv46n2p9ny4q37jv0f",
  "bc1q4mkk2urtum6tw0n866f9zzcx3kezuycdgdy0f9ypwj7mlt30mnsq3rhnqw",
  "bc1qxkrrpjnttxey5wwyfct353ayvgx38szzrj8rf33vpawaxj8d5g9seus9n8",
  "bc1q30k7rvgm9rhjv7px0due7xttxcpj3mgmrwgq5wxa97ytulaaw5rq088j5n",
  "bc1qxg6fpx506dxz27e2m279yt2hg0xdf2u03ha7jnh7j8dq6dk2t0jqttqgg5",
  "bc1qzwzvklq3u37dwm26q65pyk7kmc03n8uwq33qtyyf0y6enm8h7seqllkxs6",
  "bc1qnvvmau34hqjrl0lkl2m8sftxl97kx3crsh9cma62v0eeckc6kjtqcmyn5n",
  "bc1qx95250jj9tlua2qrlwrtfklq2prxxz53ujs8ssadw6vn00unmuls2jvwky",
  "bc1qt93nlephtle6u7ptyay845nn35ch7pk5uk5smelsqv4z7cju4ewsx8ka2r",
  "bc1q9tjzfvr7r7h34d3ddpu8wc47pvan7fzxntejw33ycdmrjsm5ytvszz7qjh",
  "bc1qqf9lm6j6u3000wgyzw0l5n9k7rwn7ga5f50lruv5fhqy29x2khtq999d0g",
  "bc1q86r5uef6zh4jysyk8prn4204plg8f5hpgda38ayvkdn54wcw04vqrqv0t9",
  "bc1qe4df2at70hnyquxmnsw0uryht3l44mq2fa9wvn4xurk6xdvq5yjsmm8sw5",
  "bc1q8m7g2lgkclcdarfesxwxp6ehzy9j7khjr3h9w59e4qh048j5cmeqvwndts",
  "bc1qumssnp90n65htdv7nfyavmshqh2y3hdsqt0m4c9xueyc37ucwxxshlglkf",
  "bc1qhspz0zz3xmtmynhj4nyw40433qeth4gg5cpf66zlq7trehw2e5fq0ajq6s",
  "bc1qrz05t6md2mxc203605rssdjrtsvrvrw05uxp0zrs5ew9tld4m3fsrvpz0z",
  "bc1qkgugetef5rfu0zmgarvx8xpmz36h229vcqyfj2aw8xj828jp6shqjka2l7",
  "bc1qjdwthzdy34y6a0uh7gp65w4pxujyuk48d0mpkdgsjt5kz7xejusslc608a",
  "bc1qn8rm9y6dx3jp2hy6ykf3m60at76mkxx85v7h2gp6haprgnf5394sf3qdgp",
  "bc1qszczacq9rms5x2nsvpggdj396kwkgyvg0s8u8nqmu6k0fwsxw62q2e5c8x",
  "bc1q0ycxp7taduxgvyak7z6j3nguuwqawjjrxegpxcunf8t3g00aah6sgva7qm",
  "bc1qe5wc40hry93y9tt8lu3k65nddje93hgqs973szcj9c7y6g58fcpqskd5me",
  "bc1qekryghgnc3xxdumevmeyp5850yewvvexj36chycu60y9ta93p0xsxlpmar",
  "bc1q7x6e4v8mqrqz8etu266lqcsuva2yuz5ydf6jkw69qgncs3t6hmssqkrv5m",
  "bc1qhye5ttfp0s0j03q4aq0f4qk9kk5rra75mtwt50lngdhapk5cklksc0syzj",
  "bc1qcqv7dmlq3dgs9favgszktv9akuyxvead5vu4mjp4v342plj3q04s83a4ad",
  "bc1q49g3p2pet0kr2e0sp02upraegz2vm2vfk2e4xxzqefdkez8h3rlsrynu9n",
  "bc1q6y7nqdzwvt04x09quf92rasucnarr6hmuce8cak8wgzlgqszd5vs3052qv",
  "bc1qud4fgqe8uegg9dcy6squsn6feq09ursp53rqz3xsq35ngpc4zswqhet0nn",
  "bc1q80a8zs7w4slzuszgs2dy4d5ce0x3d2ja60lqfcedaf09eq3v790qs6gthd",
  "bc1qa5f9mrjwdnxeguevfv6cf2hz5e2d9y86l6halm6uvy7v55kphewsq27skf",
  "bc1qsnyswgxk3hfztw75nq502mp09ww3w38dcw3nq4c6sqvwmxc556qsr4f4hs",
  "bc1qcysk9e7kac7nrsdlz7cx2p3fpms6qrfwyqv5awjxy03ymsuq5gnsukz2wg",
  "bc1qukhgl2hlhdx6e0q6c84tdx4dq8t6aqjf9drg7waf6y0hx88engcqczktzv",
  "bc1qtmke7z3pj0jrpn7mdjf5wh4yepk67ne3ple6se98masdep8fwf6q4uxj3q",
  "bc1q4m4l8ngen0jh7lvtw2czrkfg3sjxuu6gp5vnp8pcfd5attmhxmfsugkfa2",
  "bc1q3z4twlgz3sxl7fmg5qdedngg0dz9p9tggmypdqx500yp7qul0qms24c4pd",
  "bc1qgdl4mzx4uscsawj0s826796akvn344eaytaprtnt34aackkz0f5sdjeka6",
  "bc1q7yyzs3vcg4nsgdf6zk595jn0r6x3z2kz7j7l2shrewn3lq5l3sqq94xzu7",
  "bc1qwz98yfzu9zwgwx97zqs53lls6lh32rfhpl2yvstzykxyuvv5phyqdhrqsy",
  "bc1qq0fvk47060t8a4v0ycxwz7232e3zkwj0cdlc7tcq4538yg55xa0swrauke",
  "bc1qn8mt3v5g0mcuduzwd467wcmjpm374j56cpx727d8ch8tcl2hd7vsfxclqe",
  "bc1qq3yxqt7qshehh2ncsyf53vu3d3m9098zrjexqjp9f503wjx5cfdss7rr0h",
  "bc1qyr3dukhqkd7ug0npeym5d3npsdusrknwv483lhvjz726mxfrlh9s42zcuu",
  "bc1qdu6vmkndklq2llmg8yx0vk24pv6hkcc2gcfjz0p5se7534jsr24s5df2sw",
  "bc1qsgjxkduzzth2wm4dlfht0jax3du70xu3v7vsf2zyawxln59dc5zq59mlcz",
  "bc1qwuhzhwx52ewklp9g9dn3c609ykrqszwtngd3ehwawr659y3lkm0svsxf7l",
  "bc1qzf7caz4a06thl5ay7r8syuaths3xe683hedryr3lt2uf5fcn8zsqfjswqu",
  "bc1q0sg90vahyk6rhszx6qtn8pege00dscs4fvanq3zn02f7h30n7s9qhqxw5t",
  "bc1qpc3m9lhqczka23clwpg2mt3en5zzd5ult66dl643qc7smeyy0pvssevvlj",
  "bc1qm50u525s3zdppe9apzstehjtc4qftvwagc6ca6znr4k05mht3mxslhrud6",
  "bc1qxqw68qn6wrx0xxallkgw09h6uceefxwwypg6vgy4usjaxhffww6qezvdma",
  "bc1qnj2ng3xlzne9f3qcppy8femtkpm2nrrc9xgkzne5ctgpud69srgsznfqcx",
  "bc1qhkahyxcplnekxcmjchmtf569c7cmthrgsrk0y0t3twezl3xlxj2sufua3s",
  "bc1qs0fe224h8xauxc9easv3ah47jwt76pp8xv7r5njlgccuwt0vez6qwnqd3k",
  "bc1q8cyhd8r42lqh5v8guw9hxvkv4n0y7l9ehsw74af9kc75d8ckpdxqm6ath8",
  "bc1qs9qypdkatqzzkvayr8t4cjmk4jp0fs69t7250h48xh7kyev5mgxqlyjmx5",
  "bc1qjz47clvl9eg4y4pd86p8h3c28hx046jm745am4mturu5zu4fvn3sgr2e4x",
  "bc1qh6785lgw2j5928vdcm94qtus409guxdhul7sasp2n6jn94c53r9qfhmcsk",
  "bc1qxhusxhqskpf3z5znp9c9yuj56q4pwaju6fqmxfrayswcfcye42gsmnj45k",
  "bc1qa2vjh0l5e0m2w4xqe0ek3hh82mskf5qy4tlx2lcs4h573055436qgpnqfe",
  "bc1qlymaseflgpwassshmhw4urcfnxy9jppgcwnn7xkuejd9mhnygu3q2kxtuw",
  "bc1q7ggr7usv2d7lu85r4xhrs29s2vugr8cjzavaqvf5slyvdem42w3stsssjk",
  "bc1qqqtvreu0xp50cqc72s72dn7wcrpgha24g78k42rt9sf4eyafsvks59ua3r",
  "bc1qf8p8mfmscr3ry99urzvuag2eexnlgtajmtvdr6hhn233rf5h595qf7e5dt",
  "bc1q6qdqk5j4ks9qu54cn2cyp3vwae8fe607n92qrjwg2y840ue7202s6r8w6x",
  "bc1qlqzx0v6drrd98hg4uf4dqwasam6w972l86khxd223nw84aq9h65ssned4m",
  "bc1qgvzz3hfhe9wk8hm76z7853yt5nn7yeqrz7q3vqje6kznwfjvvy2qrsl8x2",
  "bc1qaz8udd2765qjsvs3t42c7rhgkq4ua9c0z57wpwh6w4war876fc3q0hty34",
  "bc1qq4eufkeee0q9mzzj3qlwhz7zlen8y8xgc5zngzzkzg2pm7m04ugs74eqla",
  "bc1qq5udgystn2qhauwxe6gexsgdpptycwf6d95jxzlk2zsckuykpu7sqcazpn",
  "bc1q26vfe8m5ejpaz2a962ay0x6ku5sjlwwxmqgsjt8fl68vuhj97y0qhkf3jd",
  "bc1q55d2t5ezxvtyf45vmlyx2u759a7ghyczc0wtdqfa388qtljeawws3tycvm",
  "bc1qawqrg3x4d622xv8lty0sqaa3xwe5ugf78ke5h27p9syt2waydgast80zrx",
  "bc1qcavyx0p7us25qpcyslxhdds6n22xjwqyxjcueudqfhjslzaaeecqdk7fc9"
]


importmulti '[{ "desc": "wsh(multi(2,xpub68C4znzpDC7X8dT36qG3wpuwteBAD1aaymfbUvQ5mdS8fUxzMFK9K4DwMAMaauscuv1KbzjHUq9zB1PMGrksyDhmFkxkzPjGwoZKUT6gDGu/*,xpub69P8tjmP2BbY7o5pbffVtwNmi7N6ACNSJuWACP1m17tJgZMJ84REQ6RSG6FEsG2DWATFRzQHEPtpTPDUQFm5cqMsm3JuMfYGwJqa7HdAvQZ/*,xpub68V28NkFkPj48unWDkYspNTdLxkHXVqQeaXVEzftGFRyXrvJE4d5NXtyH6FyrwQHAUGqxnoY35fkyvaw79kHF3EVqHhFJJGsNwib6pR5BSy/*))#554x64ul", "timestamp": "now", "range": [0, 199], "watchonly": true, "label": "test" }]' '{"rescan": true}'

Returns a dict with a status:

[
  {
    "success": true
  }
]



######not read only



getdescriptorinfo "wsh(multi(2,xprv9uCibHTvNpZDv9NZzoj3agyDLcLfoYrjcYjzgXzUDHu9ngdqohztmFuTVtghy7gadbUoVuDPRyvMXqtBnhd34iotNKjEg29Gb3XjFG9D1Jb/0h/1h/0h,xprv9vPnVEEVBp3EuK1MVe8VXoS3A5XbkjeawgaZPzc9SnMKom29aX6yrJ6xQoqE7sLTey3tJ3QopR4SxPa4gUJXWoGWwCPS7Fh2xwSuMjsX8be/0h/1h/0h,xpub68V28NkFkPj48unWDkYspNTdLxkHXVqQeaXVEzftGFRyXrvJE4d5NXtyH6FyrwQHAUGqxnoY35fkyvaw79kHF3EVqHhFJJGsNwib6pR5BSy/*))"

Returns the same disciptor with checksum:
{
  "descriptor": "wsh(multi(2,xpub68C4znzpDC7X8dT36qG3wpuwteBAD1aaymfbUvQ5mdS8fUxzMFK9K4DwMAMaauscuv1KbzjHUq9zB1PMGrksyDhmFkxkzPjGwoZKUT6gDGu/0'/1'/0',xpub69P8tjmP2BbY7o5pbffVtwNmi7N6ACNSJuWACP1m17tJgZMJ84REQ6RSG6FEsG2DWATFRzQHEPtpTPDUQFm5cqMsm3JuMfYGwJqa7HdAvQZ/0'/1'/0',xpub68V28NkFkPj48unWDkYspNTdLxkHXVqQeaXVEzftGFRyXrvJE4d5NXtyH6FyrwQHAUGqxnoY35fkyvaw79kHF3EVqHhFJJGsNwib6pR5BSy/*))#kjr98hrs",
  "checksum": "p4ejvt5s",
  "isrange": true,
  "issolvable": true,
  "hasprivatekeys": true
}

Run same command with the result.dict["checksum"] of prev command
deriveaddresses "wsh(multi(2,xprv9uCibHTvNpZDv9NZzoj3agyDLcLfoYrjcYjzgXzUDHu9ngdqohztmFuTVtghy7gadbUoVuDPRyvMXqtBnhd34iotNKjEg29Gb3XjFG9D1Jb/0h/1h/0h,xprv9vPnVEEVBp3EuK1MVe8VXoS3A5XbkjeawgaZPzc9SnMKom29aX6yrJ6xQoqE7sLTey3tJ3QopR4SxPa4gUJXWoGWwCPS7Fh2xwSuMjsX8be/0h/1h/0h,xpub68V28NkFkPj48unWDkYspNTdLxkHXVqQeaXVEzftGFRyXrvJE4d5NXtyH6FyrwQHAUGqxnoY35fkyvaw79kHF3EVqHhFJJGsNwib6pR5BSy/*))#p4ejvt5s" "[0, 199]"

Returns A list of address generated from pub keys:
same as pub keys



importmulti '[{ "desc": "wsh(multi(2,xprv9uCibHTvNpZDv9NZzoj3agyDLcLfoYrjcYjzgXzUDHu9ngdqohztmFuTVtghy7gadbUoVuDPRyvMXqtBnhd34iotNKjEg29Gb3XjFG9D1Jb/*,xprv9vPnVEEVBp3EuK1MVe8VXoS3A5XbkjeawgaZPzc9SnMKom29aX6yrJ6xQoqE7sLTey3tJ3QopR4SxPa4gUJXWoGWwCPS7Fh2xwSuMjsX8be/*,xpub68V28NkFkPj48unWDkYspNTdLxkHXVqQeaXVEzftGFRyXrvJE4d5NXtyH6FyrwQHAUGqxnoY35fkyvaw79kHF3EVqHhFJJGsNwib6pR5BSy/*))#p4ejvt5s", "timestamp": "now", "range": [0, 199], "watchonly": true, "label": "test" }]' '{"rescan": true}'

Returns a dict with a status:


[
  {
    "success": true
  }
]


######not read only with children



getdescriptorinfo "wsh(multi(2,xprv9uCibHTvNpZDv9NZzoj3agyDLcLfoYrjcYjzgXzUDHu9ngdqohztmFuTVtghy7gadbUoVuDPRyvMXqtBnhd34iotNKjEg29Gb3XjFG9D1Jb/0h/1h/*,xprv9vPnVEEVBp3EuK1MVe8VXoS3A5XbkjeawgaZPzc9SnMKom29aX6yrJ6xQoqE7sLTey3tJ3QopR4SxPa4gUJXWoGWwCPS7Fh2xwSuMjsX8be/0h/1h/*,xpub68V28NkFkPj48unWDkYspNTdLxkHXVqQeaXVEzftGFRyXrvJE4d5NXtyH6FyrwQHAUGqxnoY35fkyvaw79kHF3EVqHhFJJGsNwib6pR5BSy/*))"

Returns the same disciptor with checksum:

￼
{
  "descriptor": "wsh(multi(2,xpub68C4znzpDC7X8dT36qG3wpuwteBAD1aaymfbUvQ5mdS8fUxzMFK9K4DwMAMaauscuv1KbzjHUq9zB1PMGrksyDhmFkxkzPjGwoZKUT6gDGu/0'/1'/*,xpub69P8tjmP2BbY7o5pbffVtwNmi7N6ACNSJuWACP1m17tJgZMJ84REQ6RSG6FEsG2DWATFRzQHEPtpTPDUQFm5cqMsm3JuMfYGwJqa7HdAvQZ/0'/1'/*,xpub68V28NkFkPj48unWDkYspNTdLxkHXVqQeaXVEzftGFRyXrvJE4d5NXtyH6FyrwQHAUGqxnoY35fkyvaw79kHF3EVqHhFJJGsNwib6pR5BSy/*))#pvsvegdj",
  "checksum": "nhjy5jys",
  "isrange": true,
  "issolvable": true,
  "hasprivatekeys": true
}


Run same command with the result.dict["checksum"] of prev command
deriveaddresses "wsh(multi(2,xprv9uCibHTvNpZDv9NZzoj3agyDLcLfoYrjcYjzgXzUDHu9ngdqohztmFuTVtghy7gadbUoVuDPRyvMXqtBnhd34iotNKjEg29Gb3XjFG9D1Jb/0h/1h/*,xprv9vPnVEEVBp3EuK1MVe8VXoS3A5XbkjeawgaZPzc9SnMKom29aX6yrJ6xQoqE7sLTey3tJ3QopR4SxPa4gUJXWoGWwCPS7Fh2xwSuMjsX8be/0h/1h/*,xpub68V28NkFkPj48unWDkYspNTdLxkHXVqQeaXVEzftGFRyXrvJE4d5NXtyH6FyrwQHAUGqxnoY35fkyvaw79kHF3EVqHhFJJGsNwib6pR5BSy/*))#nhjy5jys" "[0, 199]"

Returns A list of address generated from pub keys:
same as pub keys



importmulti '[{ "desc": "wsh(multi(2,xprv9uCibHTvNpZDv9NZzoj3agyDLcLfoYrjcYjzgXzUDHu9ngdqohztmFuTVtghy7gadbUoVuDPRyvMXqtBnhd34iotNKjEg29Gb3XjFG9D1Jb/0h/1h/*,xprv9vPnVEEVBp3EuK1MVe8VXoS3A5XbkjeawgaZPzc9SnMKom29aX6yrJ6xQoqE7sLTey3tJ3QopR4SxPa4gUJXWoGWwCPS7Fh2xwSuMjsX8be/0h/1h/*,xpub68V28NkFkPj48unWDkYspNTdLxkHXVqQeaXVEzftGFRyXrvJE4d5NXtyH6FyrwQHAUGqxnoY35fkyvaw79kHF3EVqHhFJJGsNwib6pR5BSy/*))#nhjy5jys", "timestamp": "now", "range": [0, 199], "watchonly": true, "label": "test" }]' '{"rescan": true}'

Returns a dict with a status:


[
  {
    "success": true
  }
]


######with out range



getdescriptorinfo "wsh(multi(2,xprv9uCibHTvNpZDv9NZzoj3agyDLcLfoYrjcYjzgXzUDHu9ngdqohztmFuTVtghy7gadbUoVuDPRyvMXqtBnhd34iotNKjEg29Gb3XjFG9D1Jb,xprv9vPnVEEVBp3EuK1MVe8VXoS3A5XbkjeawgaZPzc9SnMKom29aX6yrJ6xQoqE7sLTey3tJ3QopR4SxPa4gUJXWoGWwCPS7Fh2xwSuMjsX8be,xpub68V28NkFkPj48unWDkYspNTdLxkHXVqQeaXVEzftGFRyXrvJE4d5NXtyH6FyrwQHAUGqxnoY35fkyvaw79kHF3EVqHhFJJGsNwib6pR5BSy))"

Returns the same disciptor with checksum:

￼
{
  "descriptor": "wsh(multi(2,xpub68C4znzpDC7X8dT36qG3wpuwteBAD1aaymfbUvQ5mdS8fUxzMFK9K4DwMAMaauscuv1KbzjHUq9zB1PMGrksyDhmFkxkzPjGwoZKUT6gDGu,xpub69P8tjmP2BbY7o5pbffVtwNmi7N6ACNSJuWACP1m17tJgZMJ84REQ6RSG6FEsG2DWATFRzQHEPtpTPDUQFm5cqMsm3JuMfYGwJqa7HdAvQZ,xpub68V28NkFkPj48unWDkYspNTdLxkHXVqQeaXVEzftGFRyXrvJE4d5NXtyH6FyrwQHAUGqxnoY35fkyvaw79kHF3EVqHhFJJGsNwib6pR5BSy))#sv4yvq7l",
  "checksum": "nht6uca3",
  "isrange": false,
  "issolvable": true,
  "hasprivatekeys": true
}


Run same command with the result.dict["checksum"] of prev command
deriveaddresses "wsh(multi(2,xprv9uCibHTvNpZDv9NZzoj3agyDLcLfoYrjcYjzgXzUDHu9ngdqohztmFuTVtghy7gadbUoVuDPRyvMXqtBnhd34iotNKjEg29Gb3XjFG9D1Jb,xprv9vPnVEEVBp3EuK1MVe8VXoS3A5XbkjeawgaZPzc9SnMKom29aX6yrJ6xQoqE7sLTey3tJ3QopR4SxPa4gUJXWoGWwCPS7Fh2xwSuMjsX8be,xpub68V28NkFkPj48unWDkYspNTdLxkHXVqQeaXVEzftGFRyXrvJE4d5NXtyH6FyrwQHAUGqxnoY35fkyvaw79kHF3EVqHhFJJGsNwib6pR5BSy))#nht6uca3"

Returns A list of address generated from pub keys:
[
  "bc1qsxyg7anvnx32sqyp4n9g4ycyl22q25eh44pdrj8q6q9glw4e3hrqu8d03g"
]


importmulti '[{ "desc": "wsh(multi(2,xprv9uCibHTvNpZDv9NZzoj3agyDLcLfoYrjcYjzgXzUDHu9ngdqohztmFuTVtghy7gadbUoVuDPRyvMXqtBnhd34iotNKjEg29Gb3XjFG9D1Jb,xprv9vPnVEEVBp3EuK1MVe8VXoS3A5XbkjeawgaZPzc9SnMKom29aX6yrJ6xQoqE7sLTey3tJ3QopR4SxPa4gUJXWoGWwCPS7Fh2xwSuMjsX8be,xpub68V28NkFkPj48unWDkYspNTdLxkHXVqQeaXVEzftGFRyXrvJE4d5NXtyH6FyrwQHAUGqxnoY35fkyvaw79kHF3EVqHhFJJGsNwib6pR5BSy))#nht6uca3", "timestamp": "now", "label": "test" }]' '{"rescan": true}'

Returns a dict with a status:


[
  {
    "success": true
  }
]


